{
  "contractName": "Files",
  "abi": [
    {
      "constant": true,
      "inputs": [
        {
          "internalType": "string",
          "name": "",
          "type": "string"
        }
      ],
      "name": "files",
      "outputs": [
        {
          "internalType": "address",
          "name": "owner",
          "type": "address"
        },
        {
          "internalType": "uint256",
          "name": "readersCount",
          "type": "uint256"
        },
        {
          "internalType": "string",
          "name": "name",
          "type": "string"
        },
        {
          "internalType": "string",
          "name": "description",
          "type": "string"
        },
        {
          "internalType": "string",
          "name": "ipfsHash",
          "type": "string"
        },
        {
          "internalType": "uint256",
          "name": "price",
          "type": "uint256"
        }
      ],
      "payable": false,
      "stateMutability": "view",
      "type": "function"
    },
    {
      "constant": true,
      "inputs": [
        {
          "internalType": "uint256",
          "name": "",
          "type": "uint256"
        }
      ],
      "name": "filesHash",
      "outputs": [
        {
          "internalType": "string",
          "name": "",
          "type": "string"
        }
      ],
      "payable": false,
      "stateMutability": "view",
      "type": "function"
    },
    {
      "constant": true,
      "inputs": [
        {
          "internalType": "string",
          "name": "_fileHash",
          "type": "string"
        },
        {
          "internalType": "address",
          "name": "_addr",
          "type": "address"
        }
      ],
      "name": "checkPermission",
      "outputs": [
        {
          "internalType": "bool",
          "name": "_hasPermission",
          "type": "bool"
        },
        {
          "internalType": "string",
          "name": "_accessKey",
          "type": "string"
        }
      ],
      "payable": false,
      "stateMutability": "view",
      "type": "function"
    },
    {
      "constant": false,
      "inputs": [
        {
          "internalType": "string",
          "name": "_fileHash",
          "type": "string"
        },
        {
          "internalType": "string",
          "name": "_name",
          "type": "string"
        },
        {
          "internalType": "string",
          "name": "_description",
          "type": "string"
        },
        {
          "internalType": "string",
          "name": "_accessKey",
          "type": "string"
        },
        {
          "internalType": "uint256",
          "name": "_price",
          "type": "uint256"
        }
      ],
      "name": "addFile",
      "outputs": [],
      "payable": false,
      "stateMutability": "nonpayable",
      "type": "function"
    },
    {
      "constant": false,
      "inputs": [
        {
          "internalType": "address payable",
          "name": "_sender",
          "type": "address"
        },
        {
          "internalType": "string",
          "name": "_fileHash",
          "type": "string"
        },
        {
          "internalType": "address payable",
          "name": "_recipient",
          "type": "address"
        },
        {
          "internalType": "uint256",
          "name": "_price",
          "type": "uint256"
        },
        {
          "internalType": "uint256",
          "name": "_duration",
          "type": "uint256"
        }
      ],
      "name": "createPaymentChannel",
      "outputs": [],
      "payable": true,
      "stateMutability": "payable",
      "type": "function"
    },
    {
      "constant": false,
      "inputs": [
        {
          "internalType": "string",
          "name": "_fileHash",
          "type": "string"
        },
        {
          "internalType": "address",
          "name": "reader",
          "type": "address"
        },
        {
          "internalType": "address",
          "name": "_contract",
          "type": "address"
        }
      ],
      "name": "addReader",
      "outputs": [],
      "payable": false,
      "stateMutability": "nonpayable",
      "type": "function"
    },
    {
      "constant": false,
      "inputs": [
        {
          "internalType": "string",
          "name": "_fileHash",
          "type": "string"
        },
        {
          "internalType": "address",
          "name": "_reader",
          "type": "address"
        }
      ],
      "name": "closePaymentChannel",
      "outputs": [],
      "payable": false,
      "stateMutability": "nonpayable",
      "type": "function"
    },
    {
      "constant": false,
      "inputs": [
        {
          "internalType": "string",
          "name": "_fileHash",
          "type": "string"
        },
        {
          "internalType": "address",
          "name": "reader",
          "type": "address"
        }
      ],
      "name": "removeReader",
      "outputs": [],
      "payable": false,
      "stateMutability": "nonpayable",
      "type": "function"
    },
    {
      "constant": true,
      "inputs": [
        {
          "internalType": "string",
          "name": "_fileHash",
          "type": "string"
        },
        {
          "internalType": "address",
          "name": "_reader",
          "type": "address"
        }
      ],
      "name": "getPaymentChannelInfo",
      "outputs": [
        {
          "internalType": "uint256",
          "name": "_price",
          "type": "uint256"
        },
        {
          "internalType": "uint256",
          "name": "_start",
          "type": "uint256"
        },
        {
          "internalType": "uint256",
          "name": "_duration",
          "type": "uint256"
        },
        {
          "internalType": "uint256",
          "name": "_expiration",
          "type": "uint256"
        },
        {
          "internalType": "uint256",
          "name": "_amount",
          "type": "uint256"
        }
      ],
      "payable": false,
      "stateMutability": "view",
      "type": "function"
    },
    {
      "constant": true,
      "inputs": [],
      "name": "getFilesCount",
      "outputs": [
        {
          "internalType": "uint256",
          "name": "",
          "type": "uint256"
        }
      ],
      "payable": false,
      "stateMutability": "view",
      "type": "function"
    },
    {
      "constant": true,
      "inputs": [
        {
          "internalType": "uint256",
          "name": "index",
          "type": "uint256"
        }
      ],
      "name": "getFileHash",
      "outputs": [
        {
          "internalType": "string",
          "name": "_hash",
          "type": "string"
        }
      ],
      "payable": false,
      "stateMutability": "view",
      "type": "function"
    },
    {
      "constant": true,
      "inputs": [
        {
          "internalType": "string",
          "name": "_hash",
          "type": "string"
        }
      ],
      "name": "getFile",
      "outputs": [
        {
          "internalType": "address",
          "name": "owner",
          "type": "address"
        },
        {
          "internalType": "uint256",
          "name": "readersCount",
          "type": "uint256"
        },
        {
          "internalType": "string",
          "name": "name",
          "type": "string"
        },
        {
          "internalType": "string",
          "name": "description",
          "type": "string"
        },
        {
          "internalType": "string",
          "name": "ipfsHash",
          "type": "string"
        },
        {
          "internalType": "uint256",
          "name": "price",
          "type": "uint256"
        }
      ],
      "payable": false,
      "stateMutability": "view",
      "type": "function"
    }
  ],
  "bytecode": "0x608060405234801561001057600080fd5b50613bb8806100206000396000f3fe608060405260043610620000b65760003560e01c8063a4d94cbd116200006d578063a4d94cbd14620005cb578063cb06247e14620006ea578063ccf6e37f1462000991578063e0876aa81462000aa0578063e77557611462000d0a578063eb1311351462000f7457620000b6565b80633feb04b014620000bb5780635226f8c614620001aa5780636bdd265e14620002655780639216f441146200037a578063994baa3614620004ae578063a3322a12146200059d575b600080fd5b348015620000c857600080fd5b50620001a860048036036040811015620000e157600080fd5b8101908080359060200190640100000000811115620000ff57600080fd5b8201836020820111156200011257600080fd5b803590602001918460018302840111640100000000831117156200013557600080fd5b91908080601f016020809104026020016040519081016040528093929190818152602001838380828437600081840152601f19601f820116905080830192505050505050509192919290803573ffffffffffffffffffffffffffffffffffffffff1690602001909291905050506200102f565b005b348015620001b757600080fd5b50620001e760048036036020811015620001d057600080fd5b810190808035906020019092919050505062001452565b6040518080602001828103825283818151815260200191508051906020019080838360005b83811015620002295780820151818401526020810190506200020c565b50505050905090810190601f168015620002575780820380516001836020036101000a031916815260200191505b509250505060405180910390f35b62000378600480360360a08110156200027d57600080fd5b81019080803573ffffffffffffffffffffffffffffffffffffffff16906020019092919080359060200190640100000000811115620002bb57600080fd5b820183602082011115620002ce57600080fd5b80359060200191846001830284011164010000000083111715620002f157600080fd5b91908080601f016020809104026020016040519081016040528093929190818152602001838380828437600081840152601f19601f820116905080830192505050505050509192919290803573ffffffffffffffffffffffffffffffffffffffff169060200190929190803590602001909291908035906020019092919050505062001510565b005b3480156200038757600080fd5b506200042560048036036040811015620003a057600080fd5b8101908080359060200190640100000000811115620003be57600080fd5b820183602082011115620003d157600080fd5b80359060200191846001830284011164010000000083111715620003f457600080fd5b9091929391929390803573ffffffffffffffffffffffffffffffffffffffff16906020019092919050505062001757565b604051808315151515815260200180602001828103825283818151815260200191508051906020019080838360005b838110156200047157808201518184015260208101905062000454565b50505050905090810190601f1680156200049f5780820380516001836020036101000a031916815260200191505b50935050505060405180910390f35b348015620004bb57600080fd5b506200059b60048036036040811015620004d457600080fd5b8101908080359060200190640100000000811115620004f257600080fd5b8201836020820111156200050557600080fd5b803590602001918460018302840111640100000000831117156200052857600080fd5b91908080601f016020809104026020016040519081016040528093929190818152602001838380828437600081840152601f19601f820116905080830192505050505050509192919290803573ffffffffffffffffffffffffffffffffffffffff16906020019092919050505062001d0d565b005b348015620005aa57600080fd5b50620005b562001e46565b6040518082815260200191505060405180910390f35b348015620005d857600080fd5b50620006b860048036036040811015620005f157600080fd5b81019080803590602001906401000000008111156200060f57600080fd5b8201836020820111156200062257600080fd5b803590602001918460018302840111640100000000831117156200064557600080fd5b91908080601f016020809104026020016040519081016040528093929190818152602001838380828437600081840152601f19601f820116905080830192505050505050509192919290803573ffffffffffffffffffffffffffffffffffffffff16906020019092919050505062001e53565b604051808681526020018581526020018481526020018381526020018281526020019550505050505060405180910390f35b348015620006f757600080fd5b506200098f600480360360a08110156200071057600080fd5b81019080803590602001906401000000008111156200072e57600080fd5b8201836020820111156200074157600080fd5b803590602001918460018302840111640100000000831117156200076457600080fd5b91908080601f016020809104026020016040519081016040528093929190818152602001838380828437600081840152601f19601f82011690508083019250505050505050919291929080359060200190640100000000811115620007c857600080fd5b820183602082011115620007db57600080fd5b80359060200191846001830284011164010000000083111715620007fe57600080fd5b91908080601f016020809104026020016040519081016040528093929190818152602001838380828437600081840152601f19601f820116905080830192505050505050509192919290803590602001906401000000008111156200086257600080fd5b8201836020820111156200087557600080fd5b803590602001918460018302840111640100000000831117156200089857600080fd5b91908080601f016020809104026020016040519081016040528093929190818152602001838380828437600081840152601f19601f82011690508083019250505050505050919291929080359060200190640100000000811115620008fc57600080fd5b8201836020820111156200090f57600080fd5b803590602001918460018302840111640100000000831117156200093257600080fd5b91908080601f016020809104026020016040519081016040528093929190818152602001838380828437600081840152601f19601f8201169050808301925050505050505091929192908035906020019092919050505062001fee565b005b3480156200099e57600080fd5b5062000a9e60048036036060811015620009b757600080fd5b8101908080359060200190640100000000811115620009d557600080fd5b820183602082011115620009e857600080fd5b8035906020019184600183028401116401000000008311171562000a0b57600080fd5b91908080601f016020809104026020016040519081016040528093929190818152602001838380828437600081840152601f19601f820116905080830192505050505050509192919290803573ffffffffffffffffffffffffffffffffffffffff169060200190929190803573ffffffffffffffffffffffffffffffffffffffff16906020019092919050505062002353565b005b34801562000aad57600080fd5b5062000b6d6004803603602081101562000ac657600080fd5b810190808035906020019064010000000081111562000ae457600080fd5b82018360208201111562000af757600080fd5b8035906020019184600183028401116401000000008311171562000b1a57600080fd5b91908080601f016020809104026020016040519081016040528093929190818152602001838380828437600081840152601f19601f82011690508083019250505050505050919291929050505062002687565b604051808773ffffffffffffffffffffffffffffffffffffffff1673ffffffffffffffffffffffffffffffffffffffff168152602001868152602001806020018060200180602001858152602001848103845288818151815260200191508051906020019080838360005b8381101562000bf557808201518184015260208101905062000bd8565b50505050905090810190601f16801562000c235780820380516001836020036101000a031916815260200191505b50848103835287818151815260200191508051906020019080838360005b8381101562000c5e57808201518184015260208101905062000c41565b50505050905090810190601f16801562000c8c5780820380516001836020036101000a031916815260200191505b50848103825286818151815260200191508051906020019080838360005b8381101562000cc757808201518184015260208101905062000caa565b50505050905090810190601f16801562000cf55780820380516001836020036101000a031916815260200191505b50995050505050505050505060405180910390f35b34801562000d1757600080fd5b5062000dd76004803603602081101562000d3057600080fd5b810190808035906020019064010000000081111562000d4e57600080fd5b82018360208201111562000d6157600080fd5b8035906020019184600183028401116401000000008311171562000d8457600080fd5b91908080601f016020809104026020016040519081016040528093929190818152602001838380828437600081840152601f19601f82011690508083019250505050505050919291929050505062002b3c565b604051808773ffffffffffffffffffffffffffffffffffffffff1673ffffffffffffffffffffffffffffffffffffffff168152602001868152602001806020018060200180602001858152602001848103845288818151815260200191508051906020019080838360005b8381101562000e5f57808201518184015260208101905062000e42565b50505050905090810190601f16801562000e8d5780820380516001836020036101000a031916815260200191505b50848103835287818151815260200191508051906020019080838360005b8381101562000ec857808201518184015260208101905062000eab565b50505050905090810190601f16801562000ef65780820380516001836020036101000a031916815260200191505b50848103825286818151815260200191508051906020019080838360005b8381101562000f3157808201518184015260208101905062000f14565b50505050905090810190601f16801562000f5f5780820380516001836020036101000a031916815260200191505b50995050505050505050505060405180910390f35b34801562000f8157600080fd5b5062000fb16004803603602081101562000f9a57600080fd5b810190808035906020019092919050505062002d82565b6040518080602001828103825283818151815260200191508051906020019080838360005b8381101562000ff357808201518184015260208101905062000fd6565b50505050905090810190601f168015620010215780820380516001836020036101000a031916815260200191505b509250505060405180910390f35b81600073ffffffffffffffffffffffffffffffffffffffff166000826040518082805190602001908083835b602083106200108057805182526020820191506020810190506020830392506200105b565b6001836020036101000a038019825116818451168082178552505050505050905001915050908152602001604051809103902060000160009054906101000a900473ffffffffffffffffffffffffffffffffffffffff1673ffffffffffffffffffffffffffffffffffffffff16141562001162576040517f08c379a000000000000000000000000000000000000000000000000000000000815260040180806020018281038252600f8152602001807f46696c65206e6f7420657869737473000000000000000000000000000000000081525060200191505060405180910390fd5b3373ffffffffffffffffffffffffffffffffffffffff166000846040518082805190602001908083835b60208310620011b157805182526020820191506020810190506020830392506200118c565b6001836020036101000a038019825116818451168082178552505050505050905001915050908152602001604051809103902060010160008473ffffffffffffffffffffffffffffffffffffffff1673ffffffffffffffffffffffffffffffffffffffff16815260200190815260200160002060010160009054906101000a900473ffffffffffffffffffffffffffffffffffffffff1673ffffffffffffffffffffffffffffffffffffffff1614620012d2576040517f08c379a00000000000000000000000000000000000000000000000000000000081526004018080602001828103825260208152602001807f446f206e6f742068617665207065726d697373696f6e20746f2072656d6f766581525060200191505060405180910390fd5b6000836040518082805190602001908083835b602083106200130a5780518252602082019150602081019050602083039250620012e5565b6001836020036101000a038019825116818451168082178552505050505050905001915050908152602001604051809103902060010160008373ffffffffffffffffffffffffffffffffffffffff1673ffffffffffffffffffffffffffffffffffffffff168152602001908152602001600020600080820160006101000a81549073ffffffffffffffffffffffffffffffffffffffff02191690556001820160006101000a81549073ffffffffffffffffffffffffffffffffffffffff021916905550506000836040518082805190602001908083835b60208310620014065780518252602082019150602081019050602083039250620013e1565b6001836020036101000a03801982511681845116808217855250505050505090500191505090815260200160405180910390206002016000815480929190600190039190505550505050565b600181815481106200146057fe5b906000526020600020016000915090508054600181600116156101000203166002900480601f016020809104026020016040519081016040528092919081815260200182805460018160011615610100020316600290048015620015085780601f10620014dc5761010080835404028352916020019162001508565b820191906000526020600020905b815481529060010190602001808311620014ea57829003601f168201915b505050505081565b3373ffffffffffffffffffffffffffffffffffffffff166000856040518082805190602001908083835b602083106200155f57805182526020820191506020810190506020830392506200153a565b6001836020036101000a038019825116818451168082178552505050505050905001915050908152602001604051809103902060000160009054906101000a900473ffffffffffffffffffffffffffffffffffffffff1673ffffffffffffffffffffffffffffffffffffffff16141562001625576040517f08c379a000000000000000000000000000000000000000000000000000000000815260040180806020018281038252602481526020018062003b606024913960400191505060405180910390fd5b60003486868686866040516200163b9062002e40565b808673ffffffffffffffffffffffffffffffffffffffff1673ffffffffffffffffffffffffffffffffffffffff168152602001806020018573ffffffffffffffffffffffffffffffffffffffff1673ffffffffffffffffffffffffffffffffffffffff168152602001848152602001838152602001828103825286818151815260200191508051906020019080838360005b83811015620016ea578082015181840152602081019050620016cd565b50505050905090810190601f168015620017185780820380516001836020036101000a031916815260200191505b5096505050505050506040518091039082f0801580156200173d573d6000803e3d6000fd5b50905090506200174f85878362002353565b505050505050565b6000606084848080601f016020809104026020016040519081016040528093929190818152602001838380828437600081840152601f19601f82011690508083019250505050505050600073ffffffffffffffffffffffffffffffffffffffff166000826040518082805190602001908083835b60208310620017f05780518252602082019150602081019050602083039250620017cb565b6001836020036101000a038019825116818451168082178552505050505050905001915050908152602001604051809103902060000160009054906101000a900473ffffffffffffffffffffffffffffffffffffffff1673ffffffffffffffffffffffffffffffffffffffff161415620018d2576040517f08c379a000000000000000000000000000000000000000000000000000000000815260040180806020018281038252600f8152602001807f46696c65206e6f7420657869737473000000000000000000000000000000000081525060200191505060405180910390fd5b8373ffffffffffffffffffffffffffffffffffffffff1660008787604051808383808284378083019250505092505050908152602001604051809103902060000160009054906101000a900473ffffffffffffffffffffffffffffffffffffffff1673ffffffffffffffffffffffffffffffffffffffff16141562001a24576001600287876040518083838082843780830192505050925050509081526020016040518091039020808054600181600116156101000203166002900480601f01602080910402602001604051908101604052809291908181526020018280546001816001161561010002031660029004801562001a135780601f10620019e75761010080835404028352916020019162001a13565b820191906000526020600020905b815481529060010190602001808311620019f557829003601f168201915b505050505090509250925062001d04565b600073ffffffffffffffffffffffffffffffffffffffff1660008787604051808383808284378083019250505092505050908152602001604051809103902060010160008673ffffffffffffffffffffffffffffffffffffffff1673ffffffffffffffffffffffffffffffffffffffff16815260200190815260200160002060000160009054906101000a900473ffffffffffffffffffffffffffffffffffffffff1673ffffffffffffffffffffffffffffffffffffffff16141562001b00576000604051806020016040528060008152509250925062001d04565b6000808787604051808383808284378083019250505092505050908152602001604051809103902060010160008673ffffffffffffffffffffffffffffffffffffffff1673ffffffffffffffffffffffffffffffffffffffff16815260200190815260200160002060010160009054906101000a900473ffffffffffffffffffffffffffffffffffffffff1690508073ffffffffffffffffffffffffffffffffffffffff16632f13b60c6040518163ffffffff1660e01b815260040160206040518083038186803b15801562001bd557600080fd5b505afa15801562001bea573d6000803e3d6000fd5b505050506040513d602081101562001c0157600080fd5b81019080805190602001909291905050501562001c3557600060405180602001604052806000815250935093505062001d04565b6001600288886040518083838082843780830192505050925050509081526020016040518091039020808054600181600116156101000203166002900480601f01602080910402602001604051908101604052809291908181526020018280546001816001161561010002031660029004801562001cf75780601f1062001ccb5761010080835404028352916020019162001cf7565b820191906000526020600020905b81548152906001019060200180831162001cd957829003601f168201915b5050505050905093509350505b50935093915050565b600080836040518082805190602001908083835b6020831062001d46578051825260208201915060208101905060208303925062001d21565b6001836020036101000a038019825116818451168082178552505050505050905001915050908152602001604051809103902060010160008373ffffffffffffffffffffffffffffffffffffffff1673ffffffffffffffffffffffffffffffffffffffff16815260200190815260200160002060010160009054906101000a900473ffffffffffffffffffffffffffffffffffffffff1690508073ffffffffffffffffffffffffffffffffffffffff166343d726d66040518163ffffffff1660e01b8152600401600060405180830381600087803b15801562001e2857600080fd5b505af115801562001e3d573d6000803e3d6000fd5b50505050505050565b6000600180549050905090565b6000806000806000806000886040518082805190602001908083835b6020831062001e94578051825260208201915060208101905060208303925062001e6f565b6001836020036101000a038019825116818451168082178552505050505050905001915050908152602001604051809103902060010160008873ffffffffffffffffffffffffffffffffffffffff1673ffffffffffffffffffffffffffffffffffffffff16815260200190815260200160002060010160009054906101000a900473ffffffffffffffffffffffffffffffffffffffff1690508073ffffffffffffffffffffffffffffffffffffffff16635a9b0b896040518163ffffffff1660e01b815260040160a06040518083038186803b15801562001f7457600080fd5b505afa15801562001f89573d6000803e3d6000fd5b505050506040513d60a081101562001fa057600080fd5b81019080805190602001909291908051906020019092919080519060200190929190805190602001909291908051906020019092919050505095509550955095509550509295509295909350565b600073ffffffffffffffffffffffffffffffffffffffff166000866040518082805190602001908083835b602083106200203e578051825260208201915060208101905060208303925062002019565b6001836020036101000a038019825116818451168082178552505050505050905001915050908152602001604051809103902060000160009054906101000a900473ffffffffffffffffffffffffffffffffffffffff1673ffffffffffffffffffffffffffffffffffffffff16146200211f576040517f08c379a000000000000000000000000000000000000000000000000000000000815260040180806020018281038252600b8152602001807f46696c652065786973747300000000000000000000000000000000000000000081525060200191505060405180910390fd5b6040518060c001604052803373ffffffffffffffffffffffffffffffffffffffff16815260200160008152602001858152602001848152602001868152602001828152506000866040518082805190602001908083835b602083106200219b578051825260208201915060208101905060208303925062002176565b6001836020036101000a038019825116818451168082178552505050505050905001915050908152602001604051809103902060008201518160000160006101000a81548173ffffffffffffffffffffffffffffffffffffffff021916908373ffffffffffffffffffffffffffffffffffffffff1602179055506020820151816002015560408201518160030190805190602001906200223d92919062002e4e565b5060608201518160040190805190602001906200225c92919062002e4e565b5060808201518160050190805190602001906200227b92919062002e4e565b5060a08201518160060155905050816002866040518082805190602001908083835b60208310620022c257805182526020820191506020810190506020830392506200229d565b6001836020036101000a038019825116818451168082178552505050505050905001915050908152602001604051809103902090805190602001906200230a92919062002ed5565b5060018590806001815401808255809150509060018203906000526020600020016000909192909190915090805190602001906200234a92919062002ed5565b50505050505050565b82600073ffffffffffffffffffffffffffffffffffffffff166000826040518082805190602001908083835b60208310620023a457805182526020820191506020810190506020830392506200237f565b6001836020036101000a038019825116818451168082178552505050505050905001915050908152602001604051809103902060000160009054906101000a900473ffffffffffffffffffffffffffffffffffffffff1673ffffffffffffffffffffffffffffffffffffffff16141562002486576040517f08c379a000000000000000000000000000000000000000000000000000000000815260040180806020018281038252600f8152602001807f46696c65206e6f7420657869737473000000000000000000000000000000000081525060200191505060405180910390fd5b60405180604001604052808473ffffffffffffffffffffffffffffffffffffffff1681526020018373ffffffffffffffffffffffffffffffffffffffff168152506000856040518082805190602001908083835b60208310620024ff5780518252602082019150602081019050602083039250620024da565b6001836020036101000a038019825116818451168082178552505050505050905001915050908152602001604051809103902060010160008573ffffffffffffffffffffffffffffffffffffffff1673ffffffffffffffffffffffffffffffffffffffff16815260200190815260200160002060008201518160000160006101000a81548173ffffffffffffffffffffffffffffffffffffffff021916908373ffffffffffffffffffffffffffffffffffffffff16021790555060208201518160010160006101000a81548173ffffffffffffffffffffffffffffffffffffffff021916908373ffffffffffffffffffffffffffffffffffffffff1602179055509050506000846040518082805190602001908083835b602083106200263b578051825260208201915060208101905060208303925062002616565b6001836020036101000a03801982511681845116808217855250505050505090500191505090815260200160405180910390206002016000815480929190600101919050555050505050565b6000806060806060600080876040518082805190602001908083835b60208310620026c85780518252602082019150602081019050602083039250620026a3565b6001836020036101000a038019825116818451168082178552505050505050905001915050908152602001604051809103902060000160009054906101000a900473ffffffffffffffffffffffffffffffffffffffff166000886040518082805190602001908083835b6020831062002757578051825260208201915060208101905060208303925062002732565b6001836020036101000a0380198251168184511680821785525050505050509050019150509081526020016040518091039020600201546000896040518082805190602001908083835b60208310620027c65780518252602082019150602081019050602083039250620027a1565b6001836020036101000a038019825116818451168082178552505050505050905001915050908152602001604051809103902060030160008a6040518082805190602001908083835b602083106200283457805182526020820191506020810190506020830392506200280f565b6001836020036101000a038019825116818451168082178552505050505050905001915050908152602001604051809103902060040160008b6040518082805190602001908083835b60208310620028a257805182526020820191506020810190506020830392506200287d565b6001836020036101000a038019825116818451168082178552505050505050905001915050908152602001604051809103902060050160008c6040518082805190602001908083835b60208310620029105780518252602082019150602081019050602083039250620028eb565b6001836020036101000a038019825116818451168082178552505050505050905001915050908152602001604051809103902060060154838054600181600116156101000203166002900480601f016020809104026020016040519081016040528092919081815260200182805460018160011615610100020316600290048015620029e05780601f10620029b457610100808354040283529160200191620029e0565b820191906000526020600020905b815481529060010190602001808311620029c257829003601f168201915b50505050509350828054600181600116156101000203166002900480601f01602080910402602001604051908101604052809291908181526020018280546001816001161561010002031660029004801562002a805780601f1062002a545761010080835404028352916020019162002a80565b820191906000526020600020905b81548152906001019060200180831162002a6257829003601f168201915b50505050509250818054600181600116156101000203166002900480601f01602080910402602001604051908101604052809291908181526020018280546001816001161561010002031660029004801562002b205780601f1062002af45761010080835404028352916020019162002b20565b820191906000526020600020905b81548152906001019060200180831162002b0257829003601f168201915b5050505050915095509550955095509550955091939550919395565b6000818051602081018201805184825260208301602085012081835280955050505050506000915090508060000160009054906101000a900473ffffffffffffffffffffffffffffffffffffffff1690806002015490806003018054600181600116156101000203166002900480601f01602080910402602001604051908101604052809291908181526020018280546001816001161561010002031660029004801562002c2e5780601f1062002c025761010080835404028352916020019162002c2e565b820191906000526020600020905b81548152906001019060200180831162002c1057829003601f168201915b505050505090806004018054600181600116156101000203166002900480601f01602080910402602001604051908101604052809291908181526020018280546001816001161561010002031660029004801562002cd05780601f1062002ca45761010080835404028352916020019162002cd0565b820191906000526020600020905b81548152906001019060200180831162002cb257829003601f168201915b505050505090806005018054600181600116156101000203166002900480601f01602080910402602001604051908101604052809291908181526020018280546001816001161561010002031660029004801562002d725780601f1062002d465761010080835404028352916020019162002d72565b820191906000526020600020905b81548152906001019060200180831162002d5457829003601f168201915b5050505050908060060154905086565b60606001828154811062002d9257fe5b906000526020600020018054600181600116156101000203166002900480601f01602080910402602001604051908101604052809291908181526020018280546001816001161561010002031660029004801562002e345780601f1062002e085761010080835404028352916020019162002e34565b820191906000526020600020905b81548152906001019060200180831162002e1657829003601f168201915b50505050509050919050565b610bdb8062002f8583390190565b828054600181600116156101000203166002900490600052602060002090601f016020900481019282601f1062002e9157805160ff191683800117855562002ec2565b8280016001018555821562002ec2579182015b8281111562002ec157825182559160200191906001019062002ea4565b5b50905062002ed1919062002f5c565b5090565b828054600181600116156101000203166002900490600052602060002090601f016020900481019282601f1062002f1857805160ff191683800117855562002f49565b8280016001018555821562002f49579182015b8281111562002f4857825182559160200191906001019062002f2b565b5b50905062002f58919062002f5c565b5090565b62002f8191905b8082111562002f7d57600081600090555060010162002f63565b5090565b9056fe6080604052604051610bdb380380610bdb833981810160405260a081101561002657600080fd5b81019080805190602001909291908051604051939291908464010000000082111561005057600080fd5b8382019150602082018581111561006657600080fd5b825186600182028301116401000000008211171561008357600080fd5b8083526020830192505050908051906020019080838360005b838110156100b757808201518184015260208101905061009c565b50505050905090810190601f1680156100e45780820380516001836020036101000a031916815260200191505b5060405260200180519060200190929190805190602001909291908051906020019092919050505061011d81833461029b60201b60201c565b61018f576040517f08c379a000000000000000000000000000000000000000000000000000000000815260040180806020018281038252600e8152602001807f496e76616c696420616d6f756e7400000000000000000000000000000000000081525060200191505060405180910390fd5b336000806101000a81548173ffffffffffffffffffffffffffffffffffffffff021916908373ffffffffffffffffffffffffffffffffffffffff16021790555084600260006101000a81548173ffffffffffffffffffffffffffffffffffffffff021916908373ffffffffffffffffffffffffffffffffffffffff16021790555083600190805190602001906102269291906102ac565b5082600360006101000a81548173ffffffffffffffffffffffffffffffffffffffff021916908373ffffffffffffffffffffffffffffffffffffffff160217905550816004819055504260058190555080600681905550610e1081024201600781905550346008819055505050505050610351565b600081838502111590509392505050565b828054600181600116156101000203166002900490600052602060002090601f016020900481019282601f106102ed57805160ff191683800117855561031b565b8280016001018555821561031b579182015b8281111561031a5782518255916020019190600101906102ff565b5b509050610328919061032c565b5090565b61034e91905b8082111561034a576000816000905550600101610332565b5090565b90565b61087b806103606000396000f3fe608060405234801561001057600080fd5b50600436106100b45760003560e01c806366d003ac1161007157806366d003ac1461016557806367e404ce146101af578063a035b1fe146101f9578063aa8c217c14610217578063be9a655514610235578063f9e79f4f14610253576100b4565b80630e1da6c3146100b95780630fb5a6b4146100c35780632f13b60c146100e157806343d726d6146101035780634665096d1461010d5780635a9b0b891461012b575b600080fd5b6100c161029d565b005b6100cb610529565b6040518082815260200191505060405180910390f35b6100e961052f565b604051808215151515815260200191505060405180910390f35b61010b61053c565b005b61011561075d565b6040518082815260200191505060405180910390f35b610133610763565b604051808681526020018581526020018481526020018381526020018281526020019550505050505060405180910390f35b61016d61078b565b604051808273ffffffffffffffffffffffffffffffffffffffff1673ffffffffffffffffffffffffffffffffffffffff16815260200191505060405180910390f35b6101b76107b1565b604051808273ffffffffffffffffffffffffffffffffffffffff1673ffffffffffffffffffffffffffffffffffffffff16815260200191505060405180910390f35b6102016107d7565b6040518082815260200191505060405180910390f35b61021f6107dd565b6040518082815260200191505060405180910390f35b61023d6107e3565b6040518082815260200191505060405180910390f35b61025b6107e9565b604051808273ffffffffffffffffffffffffffffffffffffffff1673ffffffffffffffffffffffffffffffffffffffff16815260200191505060405180910390f35b600754421015610315576040517f08c379a000000000000000000000000000000000000000000000000000000000815260040180806020018281038252601e8152602001807f486176656e27742072656163686564207468652065787069726174696f6e000081525060200191505060405180910390fd5b600360009054906101000a900473ffffffffffffffffffffffffffffffffffffffff1673ffffffffffffffffffffffffffffffffffffffff166108fc600654600454029081150290604051600060405180830381858888f19350505050158015610383573d6000803e3d6000fd5b5060008060009054906101000a900473ffffffffffffffffffffffffffffffffffffffff1690508073ffffffffffffffffffffffffffffffffffffffff16633feb04b06001600260009054906101000a900473ffffffffffffffffffffffffffffffffffffffff166040518363ffffffff1660e01b815260040180806020018373ffffffffffffffffffffffffffffffffffffffff1673ffffffffffffffffffffffffffffffffffffffff1681526020018281038252848181546001816001161561010002031660029004815260200191508054600181600116156101000203166002900480156104b55780601f1061048a576101008083540402835291602001916104b5565b820191906000526020600020905b81548152906001019060200180831161049857829003601f168201915b50509350505050600060405180830381600087803b1580156104d657600080fd5b505af11580156104ea573d6000803e3d6000fd5b50505050600260009054906101000a900473ffffffffffffffffffffffffffffffffffffffff1673ffffffffffffffffffffffffffffffffffffffff16ff5b60065481565b6000426007541115905090565b600061054960055461080e565b9050600360009054906101000a900473ffffffffffffffffffffffffffffffffffffffff1673ffffffffffffffffffffffffffffffffffffffff166108fc82600454029081150290604051600060405180830381858888f193505050501580156105b7573d6000803e3d6000fd5b5060008060009054906101000a900473ffffffffffffffffffffffffffffffffffffffff1690508073ffffffffffffffffffffffffffffffffffffffff16633feb04b06001600260009054906101000a900473ffffffffffffffffffffffffffffffffffffffff166040518363ffffffff1660e01b815260040180806020018373ffffffffffffffffffffffffffffffffffffffff1673ffffffffffffffffffffffffffffffffffffffff1681526020018281038252848181546001816001161561010002031660029004815260200191508054600181600116156101000203166002900480156106e95780601f106106be576101008083540402835291602001916106e9565b820191906000526020600020905b8154815290600101906020018083116106cc57829003601f168201915b50509350505050600060405180830381600087803b15801561070a57600080fd5b505af115801561071e573d6000803e3d6000fd5b50505050600260009054906101000a900473ffffffffffffffffffffffffffffffffffffffff1673ffffffffffffffffffffffffffffffffffffffff16ff5b60075481565b6000806000806000600454600554600654600754600854945094509450945094509091929394565b600360009054906101000a900473ffffffffffffffffffffffffffffffffffffffff1681565b600260009054906101000a900473ffffffffffffffffffffffffffffffffffffffff1681565b60045481565b60085481565b60055481565b6000809054906101000a900473ffffffffffffffffffffffffffffffffffffffff1681565b600080603c808442038161081e57fe5b048161082657fe5b049050600181101561083c576001915050610841565b809150505b91905056fea265627a7a7231582028c8ccc93433781c970b5729bd15847e729401ebf783c51caa48061935c0f79c64736f6c634300050c00324f776e65722063616e206e6f7420637265617465207061796d656e74206368616e6e656ca265627a7a723158201b4fb49c00efa39ccb9b53513174a19418078c184df87ab3b7013a59bff41e8a64736f6c634300050c0032",
  "source": "pragma solidity >=0.5.0 <0.7.0;\nimport \"./PaymentChannel.sol\";\n\ncontract Files {\n    struct Reader {\n        address addr;\n        address paymentContract;\n    }\n\n    struct File {\n        address owner;\n        mapping(address => Reader) readers;\n        uint readersCount;\n        string name;\n        string description;\n        string ipfsHash;\n        uint price;\n    }\n\n    mapping(string => File) public files;\n    string[] public filesHash;\n\n    mapping(string => string) internal accessKeys;\n\n    modifier onlyFileExists(string memory _fileHash) {\n        require(files[_fileHash].owner != address(0), \"File not exists\");\n        _;\n    }\n\n    function checkPermission (string calldata _fileHash, address _addr)\n        external\n        view\n        onlyFileExists(_fileHash)\n        returns (bool _hasPermission, string memory _accessKey)\n    {\n        if (files[_fileHash].owner == address(_addr)) {\n            return (true, accessKeys[_fileHash]);\n        }\n        if (files[_fileHash].readers[_addr].addr == address(0)) {\n            return (false, \"\");\n        }\n        PaymentChannel channel = PaymentChannel(files[_fileHash].readers[_addr].paymentContract);\n        if (channel.isExpired()) {\n            return (false, \"\");\n        }\n        return (true, accessKeys[_fileHash]);\n    }\n\n    function addFile(\n        string memory _fileHash,\n        string memory _name,\n        string memory _description,\n        string memory _accessKey,\n        uint _price\n    )\n        public\n    {\n        require(files[_fileHash].owner == address(0), \"File exists\");\n        files[_fileHash] = File({\n            owner: msg.sender,\n            name: _name,\n            readersCount: 0,\n            description: _description,\n            ipfsHash: _fileHash,\n            price: _price\n        });\n        accessKeys[_fileHash] = _accessKey;\n        filesHash.push(_fileHash);\n    }\n\n    function createPaymentChannel(\n        address payable _sender,\n        string memory _fileHash,\n        address payable _recipient,\n        uint256 _price,\n        uint256 _duration\n    )\n        public\n        payable\n    {\n        require(files[_fileHash].owner != msg.sender, \"Owner can not create payment channel\");\n        PaymentChannel channel = (new PaymentChannel).value(msg.value)(_sender, _fileHash, _recipient, _price, _duration);\n        addReader(_fileHash, _sender, address(channel));\n    }\n\n    function addReader(\n        string memory _fileHash,\n        address reader,\n        address _contract\n    )\n        public\n        onlyFileExists(_fileHash)\n    {\n        files[_fileHash].readers[reader] = Reader({\n            addr: reader,\n            paymentContract: _contract\n        });\n        files[_fileHash].readersCount++;\n    }\n\n    function closePaymentChannel(\n        string memory _fileHash,\n        address _reader\n    )\n        public\n    {\n        PaymentChannel channel = PaymentChannel(files[_fileHash].readers[_reader].paymentContract);\n        channel.close();\n    }\n\n    function removeReader(\n        string memory _fileHash,\n        address reader\n    )\n        public\n        onlyFileExists(_fileHash)\n    {\n        require(files[_fileHash].readers[reader].paymentContract == msg.sender, \"Do not have permission to remove\");\n        delete files[_fileHash].readers[reader];\n        files[_fileHash].readersCount--;\n    }\n\n    function getPaymentChannelInfo(\n        string memory _fileHash,\n        address _reader\n    )\n        public\n        view\n        returns (uint256 _price, uint256 _start, uint256 _duration, uint256 _expiration, uint256 _amount)\n    {\n        PaymentChannel channel = PaymentChannel(files[_fileHash].readers[_reader].paymentContract);\n        return channel.getInfo();\n    }\n\n    function getFilesCount() public view returns (uint) {\n        return filesHash.length;\n    }\n\n    function getFileHash(uint index) public view returns (string memory _hash) {\n        return filesHash[index];\n    }\n\n    function getFile(string memory _hash) public view returns (\n        address owner,\n        uint readersCount,\n        string memory name,\n        string memory description,\n        string memory ipfsHash,\n        uint price\n    ) {\n        return (\n            files[_hash].owner,\n            files[_hash].readersCount,\n            files[_hash].name,\n            files[_hash].description,\n            files[_hash].ipfsHash,\n            files[_hash].price\n        );\n    }\n}\n",
  "sourcePath": "D:\\workspace\\eth-ppu\\contracts\\Files.sol",
  "compiler": {
    "name": "solc",
    "version": "0.5.12+commit.7709ece9.Emscripten.clang"
  },
  "schemaVersion": "3.0.20",
  "updatedAt": "2020-01-01T12:26:58.928Z",
  "networkType": "ethereum",
  "devdoc": {
    "methods": {}
  },
  "userdoc": {
    "methods": {}
  }
}