{
  "contractName": "Files",
  "abi": [
    {
      "constant": true,
      "inputs": [
        {
          "internalType": "string",
          "name": "",
          "type": "string"
        }
      ],
      "name": "files",
      "outputs": [
        {
          "internalType": "address",
          "name": "owner",
          "type": "address"
        },
        {
          "internalType": "uint256",
          "name": "readersCount",
          "type": "uint256"
        },
        {
          "internalType": "string",
          "name": "name",
          "type": "string"
        },
        {
          "internalType": "string",
          "name": "description",
          "type": "string"
        },
        {
          "internalType": "string",
          "name": "ipfsHash",
          "type": "string"
        },
        {
          "internalType": "uint256",
          "name": "price",
          "type": "uint256"
        }
      ],
      "payable": false,
      "stateMutability": "view",
      "type": "function"
    },
    {
      "constant": true,
      "inputs": [
        {
          "internalType": "uint256",
          "name": "",
          "type": "uint256"
        }
      ],
      "name": "filesHash",
      "outputs": [
        {
          "internalType": "string",
          "name": "",
          "type": "string"
        }
      ],
      "payable": false,
      "stateMutability": "view",
      "type": "function"
    },
    {
      "constant": true,
      "inputs": [
        {
          "internalType": "uint256",
          "name": "",
          "type": "uint256"
        }
      ],
      "name": "testA",
      "outputs": [
        {
          "internalType": "uint256",
          "name": "",
          "type": "uint256"
        }
      ],
      "payable": false,
      "stateMutability": "view",
      "type": "function"
    },
    {
      "constant": true,
      "inputs": [
        {
          "internalType": "string",
          "name": "_fileHash",
          "type": "string"
        },
        {
          "internalType": "address",
          "name": "_addr",
          "type": "address"
        }
      ],
      "name": "checkPermissionAndGetKey",
      "outputs": [
        {
          "internalType": "bool",
          "name": "_hasPermission",
          "type": "bool"
        },
        {
          "internalType": "string",
          "name": "_accessKey",
          "type": "string"
        }
      ],
      "payable": false,
      "stateMutability": "view",
      "type": "function"
    },
    {
      "constant": false,
      "inputs": [
        {
          "internalType": "string",
          "name": "_fileHash",
          "type": "string"
        },
        {
          "internalType": "string",
          "name": "_name",
          "type": "string"
        },
        {
          "internalType": "string",
          "name": "_description",
          "type": "string"
        },
        {
          "internalType": "string",
          "name": "_accessKey",
          "type": "string"
        },
        {
          "internalType": "uint256",
          "name": "_price",
          "type": "uint256"
        }
      ],
      "name": "addFile",
      "outputs": [],
      "payable": false,
      "stateMutability": "nonpayable",
      "type": "function"
    },
    {
      "constant": false,
      "inputs": [
        {
          "internalType": "address payable",
          "name": "_sender",
          "type": "address"
        },
        {
          "internalType": "string",
          "name": "_fileHash",
          "type": "string"
        },
        {
          "internalType": "address payable",
          "name": "_recipient",
          "type": "address"
        },
        {
          "internalType": "uint256",
          "name": "_price",
          "type": "uint256"
        },
        {
          "internalType": "uint256",
          "name": "_duration",
          "type": "uint256"
        }
      ],
      "name": "createPaymentChannel",
      "outputs": [],
      "payable": true,
      "stateMutability": "payable",
      "type": "function"
    },
    {
      "constant": false,
      "inputs": [
        {
          "internalType": "string",
          "name": "_fileHash",
          "type": "string"
        },
        {
          "internalType": "address",
          "name": "reader",
          "type": "address"
        },
        {
          "internalType": "address",
          "name": "_contract",
          "type": "address"
        }
      ],
      "name": "addReader",
      "outputs": [],
      "payable": false,
      "stateMutability": "nonpayable",
      "type": "function"
    },
    {
      "constant": false,
      "inputs": [
        {
          "internalType": "string",
          "name": "_fileHash",
          "type": "string"
        },
        {
          "internalType": "address payable",
          "name": "_reader",
          "type": "address"
        }
      ],
      "name": "closePaymentChannel",
      "outputs": [],
      "payable": true,
      "stateMutability": "payable",
      "type": "function"
    },
    {
      "constant": false,
      "inputs": [
        {
          "internalType": "string",
          "name": "_fileHash",
          "type": "string"
        },
        {
          "internalType": "address",
          "name": "reader",
          "type": "address"
        }
      ],
      "name": "removeReader",
      "outputs": [],
      "payable": false,
      "stateMutability": "nonpayable",
      "type": "function"
    },
    {
      "constant": true,
      "inputs": [
        {
          "internalType": "string",
          "name": "_fileHash",
          "type": "string"
        },
        {
          "internalType": "address",
          "name": "_reader",
          "type": "address"
        }
      ],
      "name": "getPaymentChannelInfo",
      "outputs": [
        {
          "internalType": "uint256",
          "name": "_price",
          "type": "uint256"
        },
        {
          "internalType": "uint256",
          "name": "_start",
          "type": "uint256"
        },
        {
          "internalType": "uint256",
          "name": "_duration",
          "type": "uint256"
        },
        {
          "internalType": "uint256",
          "name": "_expiration",
          "type": "uint256"
        },
        {
          "internalType": "uint256",
          "name": "_amount",
          "type": "uint256"
        }
      ],
      "payable": false,
      "stateMutability": "view",
      "type": "function"
    },
    {
      "constant": true,
      "inputs": [],
      "name": "getFilesCount",
      "outputs": [
        {
          "internalType": "uint256",
          "name": "",
          "type": "uint256"
        }
      ],
      "payable": false,
      "stateMutability": "view",
      "type": "function"
    },
    {
      "constant": true,
      "inputs": [
        {
          "internalType": "uint256",
          "name": "index",
          "type": "uint256"
        }
      ],
      "name": "getFileHash",
      "outputs": [
        {
          "internalType": "string",
          "name": "_hash",
          "type": "string"
        }
      ],
      "payable": false,
      "stateMutability": "view",
      "type": "function"
    },
    {
      "constant": true,
      "inputs": [
        {
          "internalType": "string",
          "name": "_hash",
          "type": "string"
        }
      ],
      "name": "getFile",
      "outputs": [
        {
          "internalType": "address",
          "name": "owner",
          "type": "address"
        },
        {
          "internalType": "uint256",
          "name": "readersCount",
          "type": "uint256"
        },
        {
          "internalType": "string",
          "name": "name",
          "type": "string"
        },
        {
          "internalType": "string",
          "name": "description",
          "type": "string"
        },
        {
          "internalType": "string",
          "name": "ipfsHash",
          "type": "string"
        },
        {
          "internalType": "uint256",
          "name": "price",
          "type": "uint256"
        }
      ],
      "payable": false,
      "stateMutability": "view",
      "type": "function"
    }
  ],
  "bytecode": "0x608060405234801561001057600080fd5b50613d0b806100206000396000f3fe608060405260043610620000d45760003560e01c8063a3322a12116200008b578063ccf6e37f1162000061578063ccf6e37f14620009f4578063e0876aa81462000b03578063e77557611462000d6d578063eb1311351462000fd757620000d4565b8063a3322a121462000600578063a4d94cbd146200062e578063cb06247e146200074d57620000d4565b80633feb04b014620000d95780635226f8c614620001c85780636bdd265e14620002835780638096ac581462000398578063994baa3614620004cc5780639d4853c414620005ad575b600080fd5b348015620000e657600080fd5b50620001c660048036036040811015620000ff57600080fd5b81019080803590602001906401000000008111156200011d57600080fd5b8201836020820111156200013057600080fd5b803590602001918460018302840111640100000000831117156200015357600080fd5b91908080601f016020809104026020016040519081016040528093929190818152602001838380828437600081840152601f19601f820116905080830192505050505050509192919290803573ffffffffffffffffffffffffffffffffffffffff16906020019092919050505062001092565b005b348015620001d557600080fd5b506200020560048036036020811015620001ee57600080fd5b8101908080359060200190929190505050620014b5565b6040518080602001828103825283818151815260200191508051906020019080838360005b83811015620002475780820151818401526020810190506200022a565b50505050905090810190601f168015620002755780820380516001836020036101000a031916815260200191505b509250505060405180910390f35b62000396600480360360a08110156200029b57600080fd5b81019080803573ffffffffffffffffffffffffffffffffffffffff16906020019092919080359060200190640100000000811115620002d957600080fd5b820183602082011115620002ec57600080fd5b803590602001918460018302840111640100000000831117156200030f57600080fd5b91908080601f016020809104026020016040519081016040528093929190818152602001838380828437600081840152601f19601f820116905080830192505050505050509192919290803573ffffffffffffffffffffffffffffffffffffffff169060200190929190803590602001909291908035906020019092919050505062001573565b005b348015620003a557600080fd5b506200044360048036036040811015620003be57600080fd5b8101908080359060200190640100000000811115620003dc57600080fd5b820183602082011115620003ef57600080fd5b803590602001918460018302840111640100000000831117156200041257600080fd5b9091929391929390803573ffffffffffffffffffffffffffffffffffffffff169060200190929190505050620017ba565b604051808315151515815260200180602001828103825283818151815260200191508051906020019080838360005b838110156200048f57808201518184015260208101905062000472565b50505050905090810190601f168015620004bd5780820380516001836020036101000a031916815260200191505b50935050505060405180910390f35b620005ab60048036036040811015620004e457600080fd5b81019080803590602001906401000000008111156200050257600080fd5b8201836020820111156200051557600080fd5b803590602001918460018302840111640100000000831117156200053857600080fd5b91908080601f016020809104026020016040519081016040528093929190818152602001838380828437600081840152601f19601f820116905080830192505050505050509192919290803573ffffffffffffffffffffffffffffffffffffffff16906020019092919050505062001d70565b005b348015620005ba57600080fd5b50620005ea60048036036020811015620005d357600080fd5b810190808035906020019092919050505062001ea9565b6040518082815260200191505060405180910390f35b3480156200060d57600080fd5b506200061862001ecb565b6040518082815260200191505060405180910390f35b3480156200063b57600080fd5b506200071b600480360360408110156200065457600080fd5b81019080803590602001906401000000008111156200067257600080fd5b8201836020820111156200068557600080fd5b80359060200191846001830284011164010000000083111715620006a857600080fd5b91908080601f016020809104026020016040519081016040528093929190818152602001838380828437600081840152601f19601f820116905080830192505050505050509192919290803573ffffffffffffffffffffffffffffffffffffffff16906020019092919050505062001ed8565b604051808681526020018581526020018481526020018381526020018281526020019550505050505060405180910390f35b3480156200075a57600080fd5b50620009f2600480360360a08110156200077357600080fd5b81019080803590602001906401000000008111156200079157600080fd5b820183602082011115620007a457600080fd5b80359060200191846001830284011164010000000083111715620007c757600080fd5b91908080601f016020809104026020016040519081016040528093929190818152602001838380828437600081840152601f19601f820116905080830192505050505050509192919290803590602001906401000000008111156200082b57600080fd5b8201836020820111156200083e57600080fd5b803590602001918460018302840111640100000000831117156200086157600080fd5b91908080601f016020809104026020016040519081016040528093929190818152602001838380828437600081840152601f19601f82011690508083019250505050505050919291929080359060200190640100000000811115620008c557600080fd5b820183602082011115620008d857600080fd5b80359060200191846001830284011164010000000083111715620008fb57600080fd5b91908080601f016020809104026020016040519081016040528093929190818152602001838380828437600081840152601f19601f820116905080830192505050505050509192919290803590602001906401000000008111156200095f57600080fd5b8201836020820111156200097257600080fd5b803590602001918460018302840111640100000000831117156200099557600080fd5b91908080601f016020809104026020016040519081016040528093929190818152602001838380828437600081840152601f19601f8201169050808301925050505050505091929192908035906020019092919050505062002073565b005b34801562000a0157600080fd5b5062000b016004803603606081101562000a1a57600080fd5b810190808035906020019064010000000081111562000a3857600080fd5b82018360208201111562000a4b57600080fd5b8035906020019184600183028401116401000000008311171562000a6e57600080fd5b91908080601f016020809104026020016040519081016040528093929190818152602001838380828437600081840152601f19601f820116905080830192505050505050509192919290803573ffffffffffffffffffffffffffffffffffffffff169060200190929190803573ffffffffffffffffffffffffffffffffffffffff169060200190929190505050620023d8565b005b34801562000b1057600080fd5b5062000bd06004803603602081101562000b2957600080fd5b810190808035906020019064010000000081111562000b4757600080fd5b82018360208201111562000b5a57600080fd5b8035906020019184600183028401116401000000008311171562000b7d57600080fd5b91908080601f016020809104026020016040519081016040528093929190818152602001838380828437600081840152601f19601f8201169050808301925050505050505091929192905050506200270c565b604051808773ffffffffffffffffffffffffffffffffffffffff1673ffffffffffffffffffffffffffffffffffffffff168152602001868152602001806020018060200180602001858152602001848103845288818151815260200191508051906020019080838360005b8381101562000c5857808201518184015260208101905062000c3b565b50505050905090810190601f16801562000c865780820380516001836020036101000a031916815260200191505b50848103835287818151815260200191508051906020019080838360005b8381101562000cc157808201518184015260208101905062000ca4565b50505050905090810190601f16801562000cef5780820380516001836020036101000a031916815260200191505b50848103825286818151815260200191508051906020019080838360005b8381101562000d2a57808201518184015260208101905062000d0d565b50505050905090810190601f16801562000d585780820380516001836020036101000a031916815260200191505b50995050505050505050505060405180910390f35b34801562000d7a57600080fd5b5062000e3a6004803603602081101562000d9357600080fd5b810190808035906020019064010000000081111562000db157600080fd5b82018360208201111562000dc457600080fd5b8035906020019184600183028401116401000000008311171562000de757600080fd5b91908080601f016020809104026020016040519081016040528093929190818152602001838380828437600081840152601f19601f82011690508083019250505050505050919291929050505062002bc1565b604051808773ffffffffffffffffffffffffffffffffffffffff1673ffffffffffffffffffffffffffffffffffffffff168152602001868152602001806020018060200180602001858152602001848103845288818151815260200191508051906020019080838360005b8381101562000ec257808201518184015260208101905062000ea5565b50505050905090810190601f16801562000ef05780820380516001836020036101000a031916815260200191505b50848103835287818151815260200191508051906020019080838360005b8381101562000f2b57808201518184015260208101905062000f0e565b50505050905090810190601f16801562000f595780820380516001836020036101000a031916815260200191505b50848103825286818151815260200191508051906020019080838360005b8381101562000f9457808201518184015260208101905062000f77565b50505050905090810190601f16801562000fc25780820380516001836020036101000a031916815260200191505b50995050505050505050505060405180910390f35b34801562000fe457600080fd5b50620010146004803603602081101562000ffd57600080fd5b810190808035906020019092919050505062002e07565b6040518080602001828103825283818151815260200191508051906020019080838360005b838110156200105657808201518184015260208101905062001039565b50505050905090810190601f168015620010845780820380516001836020036101000a031916815260200191505b509250505060405180910390f35b81600073ffffffffffffffffffffffffffffffffffffffff166000826040518082805190602001908083835b60208310620010e35780518252602082019150602081019050602083039250620010be565b6001836020036101000a038019825116818451168082178552505050505050905001915050908152602001604051809103902060000160009054906101000a900473ffffffffffffffffffffffffffffffffffffffff1673ffffffffffffffffffffffffffffffffffffffff161415620011c5576040517f08c379a000000000000000000000000000000000000000000000000000000000815260040180806020018281038252600f8152602001807f46696c65206e6f7420657869737473000000000000000000000000000000000081525060200191505060405180910390fd5b3373ffffffffffffffffffffffffffffffffffffffff166000846040518082805190602001908083835b60208310620012145780518252602082019150602081019050602083039250620011ef565b6001836020036101000a038019825116818451168082178552505050505050905001915050908152602001604051809103902060010160008473ffffffffffffffffffffffffffffffffffffffff1673ffffffffffffffffffffffffffffffffffffffff16815260200190815260200160002060010160009054906101000a900473ffffffffffffffffffffffffffffffffffffffff1673ffffffffffffffffffffffffffffffffffffffff161462001335576040517f08c379a00000000000000000000000000000000000000000000000000000000081526004018080602001828103825260208152602001807f446f206e6f742068617665207065726d697373696f6e20746f2072656d6f766581525060200191505060405180910390fd5b6000836040518082805190602001908083835b602083106200136d578051825260208201915060208101905060208303925062001348565b6001836020036101000a038019825116818451168082178552505050505050905001915050908152602001604051809103902060010160008373ffffffffffffffffffffffffffffffffffffffff1673ffffffffffffffffffffffffffffffffffffffff168152602001908152602001600020600080820160006101000a81549073ffffffffffffffffffffffffffffffffffffffff02191690556001820160006101000a81549073ffffffffffffffffffffffffffffffffffffffff021916905550506000836040518082805190602001908083835b6020831062001469578051825260208201915060208101905060208303925062001444565b6001836020036101000a03801982511681845116808217855250505050505090500191505090815260200160405180910390206002016000815480929190600190039190505550505050565b60018181548110620014c357fe5b906000526020600020016000915090508054600181600116156101000203166002900480601f0160208091040260200160405190810160405280929190818152602001828054600181600116156101000203166002900480156200156b5780601f106200153f576101008083540402835291602001916200156b565b820191906000526020600020905b8154815290600101906020018083116200154d57829003601f168201915b505050505081565b3373ffffffffffffffffffffffffffffffffffffffff166000856040518082805190602001908083835b60208310620015c257805182526020820191506020810190506020830392506200159d565b6001836020036101000a038019825116818451168082178552505050505050905001915050908152602001604051809103902060000160009054906101000a900473ffffffffffffffffffffffffffffffffffffffff1673ffffffffffffffffffffffffffffffffffffffff16141562001688576040517f08c379a000000000000000000000000000000000000000000000000000000000815260040180806020018281038252602481526020018062003cb36024913960400191505060405180910390fd5b60003486868686866040516200169e9062002ec5565b808673ffffffffffffffffffffffffffffffffffffffff1673ffffffffffffffffffffffffffffffffffffffff168152602001806020018573ffffffffffffffffffffffffffffffffffffffff1673ffffffffffffffffffffffffffffffffffffffff168152602001848152602001838152602001828103825286818151815260200191508051906020019080838360005b838110156200174d57808201518184015260208101905062001730565b50505050905090810190601f1680156200177b5780820380516001836020036101000a031916815260200191505b5096505050505050506040518091039082f080158015620017a0573d6000803e3d6000fd5b5090509050620017b2858783620023d8565b505050505050565b6000606084848080601f016020809104026020016040519081016040528093929190818152602001838380828437600081840152601f19601f82011690508083019250505050505050600073ffffffffffffffffffffffffffffffffffffffff166000826040518082805190602001908083835b602083106200185357805182526020820191506020810190506020830392506200182e565b6001836020036101000a038019825116818451168082178552505050505050905001915050908152602001604051809103902060000160009054906101000a900473ffffffffffffffffffffffffffffffffffffffff1673ffffffffffffffffffffffffffffffffffffffff16141562001935576040517f08c379a000000000000000000000000000000000000000000000000000000000815260040180806020018281038252600f8152602001807f46696c65206e6f7420657869737473000000000000000000000000000000000081525060200191505060405180910390fd5b8373ffffffffffffffffffffffffffffffffffffffff1660008787604051808383808284378083019250505092505050908152602001604051809103902060000160009054906101000a900473ffffffffffffffffffffffffffffffffffffffff1673ffffffffffffffffffffffffffffffffffffffff16141562001a87576001600387876040518083838082843780830192505050925050509081526020016040518091039020808054600181600116156101000203166002900480601f01602080910402602001604051908101604052809291908181526020018280546001816001161561010002031660029004801562001a765780601f1062001a4a5761010080835404028352916020019162001a76565b820191906000526020600020905b81548152906001019060200180831162001a5857829003601f168201915b505050505090509250925062001d67565b600073ffffffffffffffffffffffffffffffffffffffff1660008787604051808383808284378083019250505092505050908152602001604051809103902060010160008673ffffffffffffffffffffffffffffffffffffffff1673ffffffffffffffffffffffffffffffffffffffff16815260200190815260200160002060000160009054906101000a900473ffffffffffffffffffffffffffffffffffffffff1673ffffffffffffffffffffffffffffffffffffffff16141562001b63576000604051806020016040528060008152509250925062001d67565b6000808787604051808383808284378083019250505092505050908152602001604051809103902060010160008673ffffffffffffffffffffffffffffffffffffffff1673ffffffffffffffffffffffffffffffffffffffff16815260200190815260200160002060010160009054906101000a900473ffffffffffffffffffffffffffffffffffffffff1690508073ffffffffffffffffffffffffffffffffffffffff16632f13b60c6040518163ffffffff1660e01b815260040160206040518083038186803b15801562001c3857600080fd5b505afa15801562001c4d573d6000803e3d6000fd5b505050506040513d602081101562001c6457600080fd5b81019080805190602001909291905050501562001c9857600060405180602001604052806000815250935093505062001d67565b6001600388886040518083838082843780830192505050925050509081526020016040518091039020808054600181600116156101000203166002900480601f01602080910402602001604051908101604052809291908181526020018280546001816001161561010002031660029004801562001d5a5780601f1062001d2e5761010080835404028352916020019162001d5a565b820191906000526020600020905b81548152906001019060200180831162001d3c57829003601f168201915b5050505050905093509350505b50935093915050565b600080836040518082805190602001908083835b6020831062001da9578051825260208201915060208101905060208303925062001d84565b6001836020036101000a038019825116818451168082178552505050505050905001915050908152602001604051809103902060010160008373ffffffffffffffffffffffffffffffffffffffff1673ffffffffffffffffffffffffffffffffffffffff16815260200190815260200160002060010160009054906101000a900473ffffffffffffffffffffffffffffffffffffffff1690508073ffffffffffffffffffffffffffffffffffffffff166343d726d66040518163ffffffff1660e01b8152600401600060405180830381600087803b15801562001e8b57600080fd5b505af115801562001ea0573d6000803e3d6000fd5b50505050505050565b6002818154811062001eb757fe5b906000526020600020016000915090505481565b6000600180549050905090565b6000806000806000806000886040518082805190602001908083835b6020831062001f19578051825260208201915060208101905060208303925062001ef4565b6001836020036101000a038019825116818451168082178552505050505050905001915050908152602001604051809103902060010160008873ffffffffffffffffffffffffffffffffffffffff1673ffffffffffffffffffffffffffffffffffffffff16815260200190815260200160002060010160009054906101000a900473ffffffffffffffffffffffffffffffffffffffff1690508073ffffffffffffffffffffffffffffffffffffffff16635a9b0b896040518163ffffffff1660e01b815260040160a06040518083038186803b15801562001ff957600080fd5b505afa1580156200200e573d6000803e3d6000fd5b505050506040513d60a08110156200202557600080fd5b81019080805190602001909291908051906020019092919080519060200190929190805190602001909291908051906020019092919050505095509550955095509550509295509295909350565b600073ffffffffffffffffffffffffffffffffffffffff166000866040518082805190602001908083835b60208310620020c357805182526020820191506020810190506020830392506200209e565b6001836020036101000a038019825116818451168082178552505050505050905001915050908152602001604051809103902060000160009054906101000a900473ffffffffffffffffffffffffffffffffffffffff1673ffffffffffffffffffffffffffffffffffffffff1614620021a4576040517f08c379a000000000000000000000000000000000000000000000000000000000815260040180806020018281038252600b8152602001807f46696c652065786973747300000000000000000000000000000000000000000081525060200191505060405180910390fd5b6040518060c001604052803373ffffffffffffffffffffffffffffffffffffffff16815260200160008152602001858152602001848152602001868152602001828152506000866040518082805190602001908083835b60208310620022205780518252602082019150602081019050602083039250620021fb565b6001836020036101000a038019825116818451168082178552505050505050905001915050908152602001604051809103902060008201518160000160006101000a81548173ffffffffffffffffffffffffffffffffffffffff021916908373ffffffffffffffffffffffffffffffffffffffff160217905550602082015181600201556040820151816003019080519060200190620022c292919062002ed3565b506060820151816004019080519060200190620022e192919062002ed3565b5060808201518160050190805190602001906200230092919062002ed3565b5060a08201518160060155905050816003866040518082805190602001908083835b6020831062002347578051825260208201915060208101905060208303925062002322565b6001836020036101000a038019825116818451168082178552505050505050905001915050908152602001604051809103902090805190602001906200238f92919062002f5a565b506001859080600181540180825580915050906001820390600052602060002001600090919290919091509080519060200190620023cf92919062002f5a565b50505050505050565b82600073ffffffffffffffffffffffffffffffffffffffff166000826040518082805190602001908083835b6020831062002429578051825260208201915060208101905060208303925062002404565b6001836020036101000a038019825116818451168082178552505050505050905001915050908152602001604051809103902060000160009054906101000a900473ffffffffffffffffffffffffffffffffffffffff1673ffffffffffffffffffffffffffffffffffffffff1614156200250b576040517f08c379a000000000000000000000000000000000000000000000000000000000815260040180806020018281038252600f8152602001807f46696c65206e6f7420657869737473000000000000000000000000000000000081525060200191505060405180910390fd5b60405180604001604052808473ffffffffffffffffffffffffffffffffffffffff1681526020018373ffffffffffffffffffffffffffffffffffffffff168152506000856040518082805190602001908083835b602083106200258457805182526020820191506020810190506020830392506200255f565b6001836020036101000a038019825116818451168082178552505050505050905001915050908152602001604051809103902060010160008573ffffffffffffffffffffffffffffffffffffffff1673ffffffffffffffffffffffffffffffffffffffff16815260200190815260200160002060008201518160000160006101000a81548173ffffffffffffffffffffffffffffffffffffffff021916908373ffffffffffffffffffffffffffffffffffffffff16021790555060208201518160010160006101000a81548173ffffffffffffffffffffffffffffffffffffffff021916908373ffffffffffffffffffffffffffffffffffffffff1602179055509050506000846040518082805190602001908083835b60208310620026c057805182526020820191506020810190506020830392506200269b565b6001836020036101000a03801982511681845116808217855250505050505090500191505090815260200160405180910390206002016000815480929190600101919050555050505050565b6000806060806060600080876040518082805190602001908083835b602083106200274d578051825260208201915060208101905060208303925062002728565b6001836020036101000a038019825116818451168082178552505050505050905001915050908152602001604051809103902060000160009054906101000a900473ffffffffffffffffffffffffffffffffffffffff166000886040518082805190602001908083835b60208310620027dc5780518252602082019150602081019050602083039250620027b7565b6001836020036101000a0380198251168184511680821785525050505050509050019150509081526020016040518091039020600201546000896040518082805190602001908083835b602083106200284b578051825260208201915060208101905060208303925062002826565b6001836020036101000a038019825116818451168082178552505050505050905001915050908152602001604051809103902060030160008a6040518082805190602001908083835b60208310620028b9578051825260208201915060208101905060208303925062002894565b6001836020036101000a038019825116818451168082178552505050505050905001915050908152602001604051809103902060040160008b6040518082805190602001908083835b6020831062002927578051825260208201915060208101905060208303925062002902565b6001836020036101000a038019825116818451168082178552505050505050905001915050908152602001604051809103902060050160008c6040518082805190602001908083835b6020831062002995578051825260208201915060208101905060208303925062002970565b6001836020036101000a038019825116818451168082178552505050505050905001915050908152602001604051809103902060060154838054600181600116156101000203166002900480601f01602080910402602001604051908101604052809291908181526020018280546001816001161561010002031660029004801562002a655780601f1062002a395761010080835404028352916020019162002a65565b820191906000526020600020905b81548152906001019060200180831162002a4757829003601f168201915b50505050509350828054600181600116156101000203166002900480601f01602080910402602001604051908101604052809291908181526020018280546001816001161561010002031660029004801562002b055780601f1062002ad95761010080835404028352916020019162002b05565b820191906000526020600020905b81548152906001019060200180831162002ae757829003601f168201915b50505050509250818054600181600116156101000203166002900480601f01602080910402602001604051908101604052809291908181526020018280546001816001161561010002031660029004801562002ba55780601f1062002b795761010080835404028352916020019162002ba5565b820191906000526020600020905b81548152906001019060200180831162002b8757829003601f168201915b5050505050915095509550955095509550955091939550919395565b6000818051602081018201805184825260208301602085012081835280955050505050506000915090508060000160009054906101000a900473ffffffffffffffffffffffffffffffffffffffff1690806002015490806003018054600181600116156101000203166002900480601f01602080910402602001604051908101604052809291908181526020018280546001816001161561010002031660029004801562002cb35780601f1062002c875761010080835404028352916020019162002cb3565b820191906000526020600020905b81548152906001019060200180831162002c9557829003601f168201915b505050505090806004018054600181600116156101000203166002900480601f01602080910402602001604051908101604052809291908181526020018280546001816001161561010002031660029004801562002d555780601f1062002d295761010080835404028352916020019162002d55565b820191906000526020600020905b81548152906001019060200180831162002d3757829003601f168201915b505050505090806005018054600181600116156101000203166002900480601f01602080910402602001604051908101604052809291908181526020018280546001816001161561010002031660029004801562002df75780601f1062002dcb5761010080835404028352916020019162002df7565b820191906000526020600020905b81548152906001019060200180831162002dd957829003601f168201915b5050505050908060060154905086565b60606001828154811062002e1757fe5b906000526020600020018054600181600116156101000203166002900480601f01602080910402602001604051908101604052809291908181526020018280546001816001161561010002031660029004801562002eb95780601f1062002e8d5761010080835404028352916020019162002eb9565b820191906000526020600020905b81548152906001019060200180831162002e9b57829003601f168201915b50505050509050919050565b610ca9806200300a83390190565b828054600181600116156101000203166002900490600052602060002090601f016020900481019282601f1062002f1657805160ff191683800117855562002f47565b8280016001018555821562002f47579182015b8281111562002f4657825182559160200191906001019062002f29565b5b50905062002f56919062002fe1565b5090565b828054600181600116156101000203166002900490600052602060002090601f016020900481019282601f1062002f9d57805160ff191683800117855562002fce565b8280016001018555821562002fce579182015b8281111562002fcd57825182559160200191906001019062002fb0565b5b50905062002fdd919062002fe1565b5090565b6200300691905b808211156200300257600081600090555060010162002fe8565b5090565b9056fe6080604052604051610ca9380380610ca9833981810160405260a081101561002657600080fd5b81019080805190602001909291908051604051939291908464010000000082111561005057600080fd5b8382019150602082018581111561006657600080fd5b825186600182028301116401000000008211171561008357600080fd5b8083526020830192505050908051906020019080838360005b838110156100b757808201518184015260208101905061009c565b50505050905090810190601f1680156100e45780820380516001836020036101000a031916815260200191505b5060405260200180519060200190929190805190602001909291908051906020019092919050505061011d81833461029c60201b60201c565b61018f576040517f08c379a000000000000000000000000000000000000000000000000000000000815260040180806020018281038252600e8152602001807f496e76616c696420616d6f756e7400000000000000000000000000000000000081525060200191505060405180910390fd5b336000806101000a81548173ffffffffffffffffffffffffffffffffffffffff021916908373ffffffffffffffffffffffffffffffffffffffff16021790555084600260006101000a81548173ffffffffffffffffffffffffffffffffffffffff021916908373ffffffffffffffffffffffffffffffffffffffff16021790555083600190805190602001906102269291906102ad565b5082600360006101000a81548173ffffffffffffffffffffffffffffffffffffffff021916908373ffffffffffffffffffffffffffffffffffffffff1602179055508160048190555042600581905550806006819055506201518081024201600781905550346008819055505050505050610352565b600081838502111590509392505050565b828054600181600116156101000203166002900490600052602060002090601f016020900481019282601f106102ee57805160ff191683800117855561031c565b8280016001018555821561031c579182015b8281111561031b578251825591602001919060010190610300565b5b509050610329919061032d565b5090565b61034f91905b8082111561034b576000816000905550600101610333565b5090565b90565b610948806103616000396000f3fe608060405234801561001057600080fd5b50600436106100b45760003560e01c806366d003ac1161007157806366d003ac1461016557806367e404ce146101af578063a035b1fe146101f9578063aa8c217c14610217578063be9a655514610235578063f9e79f4f14610253576100b4565b80630e1da6c3146100b95780630fb5a6b4146100c35780632f13b60c146100e157806343d726d6146101035780634665096d1461010d5780635a9b0b891461012b575b600080fd5b6100c161029d565b005b6100cb610529565b6040518082815260200191505060405180910390f35b6100e961052f565b604051808215151515815260200191505060405180910390f35b61010b61053c565b005b610115610820565b6040518082815260200191505060405180910390f35b610133610826565b604051808681526020018581526020018481526020018381526020018281526020019550505050505060405180910390f35b61016d61084e565b604051808273ffffffffffffffffffffffffffffffffffffffff1673ffffffffffffffffffffffffffffffffffffffff16815260200191505060405180910390f35b6101b7610874565b604051808273ffffffffffffffffffffffffffffffffffffffff1673ffffffffffffffffffffffffffffffffffffffff16815260200191505060405180910390f35b61020161089a565b6040518082815260200191505060405180910390f35b61021f6108a0565b6040518082815260200191505060405180910390f35b61023d6108a6565b6040518082815260200191505060405180910390f35b61025b6108ac565b604051808273ffffffffffffffffffffffffffffffffffffffff1673ffffffffffffffffffffffffffffffffffffffff16815260200191505060405180910390f35b600754421015610315576040517f08c379a000000000000000000000000000000000000000000000000000000000815260040180806020018281038252601e8152602001807f486176656e27742072656163686564207468652065787069726174696f6e000081525060200191505060405180910390fd5b600360009054906101000a900473ffffffffffffffffffffffffffffffffffffffff1673ffffffffffffffffffffffffffffffffffffffff166108fc600654600454029081150290604051600060405180830381858888f19350505050158015610383573d6000803e3d6000fd5b5060008060009054906101000a900473ffffffffffffffffffffffffffffffffffffffff1690508073ffffffffffffffffffffffffffffffffffffffff16633feb04b06001600260009054906101000a900473ffffffffffffffffffffffffffffffffffffffff166040518363ffffffff1660e01b815260040180806020018373ffffffffffffffffffffffffffffffffffffffff1673ffffffffffffffffffffffffffffffffffffffff1681526020018281038252848181546001816001161561010002031660029004815260200191508054600181600116156101000203166002900480156104b55780601f1061048a576101008083540402835291602001916104b5565b820191906000526020600020905b81548152906001019060200180831161049857829003601f168201915b50509350505050600060405180830381600087803b1580156104d657600080fd5b505af11580156104ea573d6000803e3d6000fd5b50505050600260009054906101000a900473ffffffffffffffffffffffffffffffffffffffff1673ffffffffffffffffffffffffffffffffffffffff16ff5b60065481565b6000426007541115905090565b600260009054906101000a900473ffffffffffffffffffffffffffffffffffffffff1673ffffffffffffffffffffffffffffffffffffffff163373ffffffffffffffffffffffffffffffffffffffff16146105ff576040517f08c379a000000000000000000000000000000000000000000000000000000000815260040180806020018281038252601a8152602001807f4f6e6c792073656e6465722063616e2063616c6c20746869732e00000000000081525060200191505060405180910390fd5b600061060c6005546108d1565b9050600360009054906101000a900473ffffffffffffffffffffffffffffffffffffffff1673ffffffffffffffffffffffffffffffffffffffff166108fc82600454029081150290604051600060405180830381858888f1935050505015801561067a573d6000803e3d6000fd5b5060008060009054906101000a900473ffffffffffffffffffffffffffffffffffffffff1690508073ffffffffffffffffffffffffffffffffffffffff16633feb04b06001600260009054906101000a900473ffffffffffffffffffffffffffffffffffffffff166040518363ffffffff1660e01b815260040180806020018373ffffffffffffffffffffffffffffffffffffffff1673ffffffffffffffffffffffffffffffffffffffff1681526020018281038252848181546001816001161561010002031660029004815260200191508054600181600116156101000203166002900480156107ac5780601f10610781576101008083540402835291602001916107ac565b820191906000526020600020905b81548152906001019060200180831161078f57829003601f168201915b50509350505050600060405180830381600087803b1580156107cd57600080fd5b505af11580156107e1573d6000803e3d6000fd5b50505050600260009054906101000a900473ffffffffffffffffffffffffffffffffffffffff1673ffffffffffffffffffffffffffffffffffffffff16ff5b60075481565b6000806000806000600454600554600654600754600854945094509450945094509091929394565b600360009054906101000a900473ffffffffffffffffffffffffffffffffffffffff1681565b600260009054906101000a900473ffffffffffffffffffffffffffffffffffffffff1681565b60045481565b60085481565b60055481565b6000809054906101000a900473ffffffffffffffffffffffffffffffffffffffff1681565b6000806018603c80854203816108e357fe5b04816108eb57fe5b04816108f357fe5b049050600181101561090957600191505061090e565b809150505b91905056fea265627a7a72315820cb36163c04a3ab5c55d81ede45401dba9d6d00ecec9bdbdf555016dbc4e61b0e64736f6c634300050c00324f776e65722063616e206e6f7420637265617465207061796d656e74206368616e6e656ca265627a7a72315820d79b73883fe27bfdc9319e2d395632cdd44f5d5d3cb3b2cbfe0b779eb672040564736f6c634300050c0032",
  "source": "pragma solidity >=0.5.0 <0.7.0;\nimport \"./PaymentChannel.sol\";\n\ncontract Files {\n    struct Reader {\n        address addr;\n        address paymentContract;\n    }\n\n    struct File {\n        address owner;\n        mapping(address => Reader) readers;\n        uint readersCount;\n        string name;\n        string description;\n        string ipfsHash;\n        uint price;\n    }\n\n    mapping(string => File) public files;\n    string[] public filesHash;\n    uint[] public testA;\n\n    mapping(string => string) internal accessKeys;\n\n    modifier onlyFileExists(string memory _fileHash) {\n        require(files[_fileHash].owner != address(0), \"File not exists\");\n        _;\n    }\n\n    function checkPermissionAndGetKey (string calldata _fileHash, address _addr)\n        external\n        view\n        onlyFileExists(_fileHash)\n        returns (bool _hasPermission, string memory _accessKey)\n    {\n        if (files[_fileHash].owner == address(_addr)) {\n            return (true, accessKeys[_fileHash]);\n        }\n        if (files[_fileHash].readers[_addr].addr == address(0)) {\n            return (false, \"\");\n        }\n        PaymentChannel channel = PaymentChannel(files[_fileHash].readers[_addr].paymentContract);\n        if (channel.isExpired()) {\n            return (false, \"\");\n        }\n        return (true, accessKeys[_fileHash]);\n    }\n\n    function addFile(\n        string memory _fileHash,\n        string memory _name,\n        string memory _description,\n        string memory _accessKey,\n        uint _price\n    )\n        public\n    {\n        require(files[_fileHash].owner == address(0), \"File exists\");\n        files[_fileHash] = File({\n            owner: msg.sender,\n            name: _name,\n            readersCount: 0,\n            description: _description,\n            ipfsHash: _fileHash,\n            price: _price\n        });\n        accessKeys[_fileHash] = _accessKey;\n        filesHash.push(_fileHash);\n    }\n\n    function createPaymentChannel(\n        address payable _sender,\n        string memory _fileHash,\n        address payable _recipient,\n        uint256 _price,\n        uint256 _duration\n    )\n        public\n        payable\n    {\n        require(files[_fileHash].owner != msg.sender, \"Owner can not create payment channel\");\n        PaymentChannel channel = (new PaymentChannel).value(msg.value)(_sender, _fileHash, _recipient, _price, _duration);\n        addReader(_fileHash, _sender, address(channel));\n    }\n\n    function addReader(\n        string memory _fileHash,\n        address reader,\n        address _contract\n    )\n        public\n        onlyFileExists(_fileHash)\n    {\n        files[_fileHash].readers[reader] = Reader({\n            addr: reader,\n            paymentContract: _contract\n        });\n        files[_fileHash].readersCount++;\n    }\n\n    function closePaymentChannel(\n        string memory _fileHash,\n        address payable _reader\n    )\n        public\n        payable\n    {\n        PaymentChannel channel = PaymentChannel(files[_fileHash].readers[_reader].paymentContract);\n        channel.close();\n    }\n\n    function removeReader(\n        string memory _fileHash,\n        address reader\n    )\n        public\n        onlyFileExists(_fileHash)\n    {\n        require(files[_fileHash].readers[reader].paymentContract == msg.sender, \"Do not have permission to remove\");\n        delete files[_fileHash].readers[reader];\n        files[_fileHash].readersCount--;\n    }\n\n    function getPaymentChannelInfo(\n        string memory _fileHash,\n        address _reader\n    )\n        public\n        view\n        returns (uint256 _price, uint256 _start, uint256 _duration, uint256 _expiration, uint256 _amount)\n    {\n        PaymentChannel channel = PaymentChannel(files[_fileHash].readers[_reader].paymentContract);\n        return channel.getInfo();\n    }\n\n    function getFilesCount() public view returns (uint) {\n        return filesHash.length;\n    }\n\n    function getFileHash(uint index) public view returns (string memory _hash) {\n        return filesHash[index];\n    }\n\n    function getFile(string memory _hash) public view returns (\n        address owner,\n        uint readersCount,\n        string memory name,\n        string memory description,\n        string memory ipfsHash,\n        uint price\n    ) {\n        return (\n            files[_hash].owner,\n            files[_hash].readersCount,\n            files[_hash].name,\n            files[_hash].description,\n            files[_hash].ipfsHash,\n            files[_hash].price\n        );\n    }\n}\n",
  "sourcePath": "D:\\workspace\\ppu\\contracts\\Files.sol",
  "compiler": {
    "name": "solc",
    "version": "0.5.12+commit.7709ece9.Emscripten.clang"
  },
  "schemaVersion": "3.0.19",
  "updatedAt": "2019-12-19T19:44:20.771Z",
  "networkType": "ethereum",
  "devdoc": {
    "methods": {}
  },
  "userdoc": {
    "methods": {}
  }
}