{
  "contractName": "Files",
  "abi": [
    {
      "constant": true,
      "inputs": [
        {
          "internalType": "string",
          "name": "",
          "type": "string"
        }
      ],
      "name": "files",
      "outputs": [
        {
          "internalType": "address",
          "name": "owner",
          "type": "address"
        },
        {
          "internalType": "uint256",
          "name": "readersCount",
          "type": "uint256"
        },
        {
          "internalType": "string",
          "name": "name",
          "type": "string"
        },
        {
          "internalType": "string",
          "name": "description",
          "type": "string"
        },
        {
          "internalType": "string",
          "name": "ipfsHash",
          "type": "string"
        }
      ],
      "payable": false,
      "stateMutability": "view",
      "type": "function"
    },
    {
      "constant": true,
      "inputs": [],
      "name": "filesCount",
      "outputs": [
        {
          "internalType": "uint256",
          "name": "",
          "type": "uint256"
        }
      ],
      "payable": false,
      "stateMutability": "view",
      "type": "function"
    },
    {
      "constant": true,
      "inputs": [
        {
          "internalType": "string",
          "name": "_hash",
          "type": "string"
        },
        {
          "internalType": "address",
          "name": "_addr",
          "type": "address"
        }
      ],
      "name": "checkPermissionAndGetKey",
      "outputs": [
        {
          "internalType": "bool",
          "name": "_hasPermission",
          "type": "bool"
        },
        {
          "internalType": "string",
          "name": "_accessKey",
          "type": "string"
        }
      ],
      "payable": false,
      "stateMutability": "view",
      "type": "function"
    },
    {
      "constant": false,
      "inputs": [
        {
          "internalType": "address",
          "name": "_owner",
          "type": "address"
        },
        {
          "internalType": "string",
          "name": "_hash",
          "type": "string"
        },
        {
          "internalType": "string",
          "name": "_name",
          "type": "string"
        },
        {
          "internalType": "string",
          "name": "_description",
          "type": "string"
        },
        {
          "internalType": "string",
          "name": "_accessKey",
          "type": "string"
        }
      ],
      "name": "addFile",
      "outputs": [],
      "payable": false,
      "stateMutability": "nonpayable",
      "type": "function"
    },
    {
      "constant": false,
      "inputs": [
        {
          "internalType": "string",
          "name": "_hash",
          "type": "string"
        }
      ],
      "name": "removeFile",
      "outputs": [],
      "payable": false,
      "stateMutability": "nonpayable",
      "type": "function"
    },
    {
      "constant": false,
      "inputs": [
        {
          "internalType": "string",
          "name": "_hash",
          "type": "string"
        },
        {
          "internalType": "address",
          "name": "reader",
          "type": "address"
        },
        {
          "internalType": "address",
          "name": "_contract",
          "type": "address"
        }
      ],
      "name": "addReader",
      "outputs": [],
      "payable": false,
      "stateMutability": "nonpayable",
      "type": "function"
    },
    {
      "constant": false,
      "inputs": [
        {
          "internalType": "string",
          "name": "_hash",
          "type": "string"
        },
        {
          "internalType": "address",
          "name": "reader",
          "type": "address"
        }
      ],
      "name": "removeReader",
      "outputs": [],
      "payable": false,
      "stateMutability": "nonpayable",
      "type": "function"
    }
  ],
  "bytecode": "0x608060405234801561001057600080fd5b50611cbb806100206000396000f3fe608060405234801561001057600080fd5b506004361061007d5760003560e01c8063ccf6e37f1161005b578063ccf6e37f1461051a578063dfb5e9ba14610615578063e775576114610633578063f1afe04d146108795761007d565b80633908c7f5146100825780633feb04b0146103225780638096ac58146103fd575b600080fd5b610320600480360360a081101561009857600080fd5b81019080803573ffffffffffffffffffffffffffffffffffffffff169060200190929190803590602001906401000000008111156100d557600080fd5b8201836020820111156100e757600080fd5b8035906020019184600183028401116401000000008311171561010957600080fd5b91908080601f016020809104026020016040519081016040528093929190818152602001838380828437600081840152601f19601f8201169050808301925050505050505091929192908035906020019064010000000081111561016c57600080fd5b82018360208201111561017e57600080fd5b803590602001918460018302840111640100000000831117156101a057600080fd5b91908080601f016020809104026020016040519081016040528093929190818152602001838380828437600081840152601f19601f8201169050808301925050505050505091929192908035906020019064010000000081111561020357600080fd5b82018360208201111561021557600080fd5b8035906020019184600183028401116401000000008311171561023757600080fd5b91908080601f016020809104026020016040519081016040528093929190818152602001838380828437600081840152601f19601f8201169050808301925050505050505091929192908035906020019064010000000081111561029a57600080fd5b8201836020820111156102ac57600080fd5b803590602001918460018302840111640100000000831117156102ce57600080fd5b91908080601f016020809104026020016040519081016040528093929190818152602001838380828437600081840152601f19601f820116905080830192505050505050509192919290505050610934565b005b6103fb6004803603604081101561033857600080fd5b810190808035906020019064010000000081111561035557600080fd5b82018360208201111561036757600080fd5b8035906020019184600183028401116401000000008311171561038957600080fd5b91908080601f016020809104026020016040519081016040528093929190818152602001838380828437600081840152601f19601f820116905080830192505050505050509192919290803573ffffffffffffffffffffffffffffffffffffffff169060200190929190505050610c4b565b005b6104946004803603604081101561041357600080fd5b810190808035906020019064010000000081111561043057600080fd5b82018360208201111561044257600080fd5b8035906020019184600183028401116401000000008311171561046457600080fd5b9091929391929390803573ffffffffffffffffffffffffffffffffffffffff169060200190929190505050610ef7565b604051808315151515815260200180602001828103825283818151815260200191508051906020019080838360005b838110156104de5780820151818401526020810190506104c3565b50505050905090810190601f16801561050b5780820380516001836020036101000a031916815260200191505b50935050505060405180910390f35b6106136004803603606081101561053057600080fd5b810190808035906020019064010000000081111561054d57600080fd5b82018360208201111561055f57600080fd5b8035906020019184600183028401116401000000008311171561058157600080fd5b91908080601f016020809104026020016040519081016040528093929190818152602001838380828437600081840152601f19601f820116905080830192505050505050509192919290803573ffffffffffffffffffffffffffffffffffffffff169060200190929190803573ffffffffffffffffffffffffffffffffffffffff1690602001909291905050506113a0565b005b61061d6116cd565b6040518082815260200191505060405180910390f35b6106ec6004803603602081101561064957600080fd5b810190808035906020019064010000000081111561066657600080fd5b82018360208201111561067857600080fd5b8035906020019184600183028401116401000000008311171561069a57600080fd5b91908080601f016020809104026020016040519081016040528093929190818152602001838380828437600081840152601f19601f8201169050808301925050505050505091929192905050506116d3565b604051808673ffffffffffffffffffffffffffffffffffffffff1673ffffffffffffffffffffffffffffffffffffffff168152602001858152602001806020018060200180602001848103845287818151815260200191508051906020019080838360005b8381101561076c578082015181840152602081019050610751565b50505050905090810190601f1680156107995780820380516001836020036101000a031916815260200191505b50848103835286818151815260200191508051906020019080838360005b838110156107d25780820151818401526020810190506107b7565b50505050905090810190601f1680156107ff5780820380516001836020036101000a031916815260200191505b50848103825285818151815260200191508051906020019080838360005b8381101561083857808201518184015260208101905061081d565b50505050905090810190601f1680156108655780820380516001836020036101000a031916815260200191505b509850505050505050505060405180910390f35b6109326004803603602081101561088f57600080fd5b81019080803590602001906401000000008111156108ac57600080fd5b8201836020820111156108be57600080fd5b803590602001918460018302840111640100000000831117156108e057600080fd5b91908080601f016020809104026020016040519081016040528093929190818152602001838380828437600081840152601f19601f820116905080830192505050505050509192919290505050611907565b005b600073ffffffffffffffffffffffffffffffffffffffff166000856040518082805190602001908083835b60208310610982578051825260208201915060208101905060208303925061095f565b6001836020036101000a038019825116818451168082178552505050505050905001915050908152602001604051809103902060000160009054906101000a900473ffffffffffffffffffffffffffffffffffffffff1673ffffffffffffffffffffffffffffffffffffffff1614610a62576040517f08c379a000000000000000000000000000000000000000000000000000000000815260040180806020018281038252600b8152602001807f46696c652065786973747300000000000000000000000000000000000000000081525060200191505060405180910390fd5b6040518060a001604052808673ffffffffffffffffffffffffffffffffffffffff16815260200160008152602001848152602001838152602001858152506000856040518082805190602001908083835b60208310610ad65780518252602082019150602081019050602083039250610ab3565b6001836020036101000a038019825116818451168082178552505050505050905001915050908152602001604051809103902060008201518160000160006101000a81548173ffffffffffffffffffffffffffffffffffffffff021916908373ffffffffffffffffffffffffffffffffffffffff160217905550602082015181600201556040820151816003019080519060200190610b76929190611b19565b506060820151816004019080519060200190610b93929190611b19565b506080820151816005019080519060200190610bb0929190611b19565b50905050806002856040518082805190602001908083835b60208310610beb5780518252602082019150602081019050602083039250610bc8565b6001836020036101000a03801982511681845116808217855250505050505090500191505090815260200160405180910390209080519060200190610c31929190611b99565b506001600081548092919060010191905055505050505050565b81600073ffffffffffffffffffffffffffffffffffffffff166000826040518082805190602001908083835b60208310610c9a5780518252602082019150602081019050602083039250610c77565b6001836020036101000a038019825116818451168082178552505050505050905001915050908152602001604051809103902060000160009054906101000a900473ffffffffffffffffffffffffffffffffffffffff1673ffffffffffffffffffffffffffffffffffffffff161415610d7b576040517f08c379a000000000000000000000000000000000000000000000000000000000815260040180806020018281038252600f8152602001807f46696c65206e6f7420657869737473000000000000000000000000000000000081525060200191505060405180910390fd5b6000836040518082805190602001908083835b60208310610db15780518252602082019150602081019050602083039250610d8e565b6001836020036101000a038019825116818451168082178552505050505050905001915050908152602001604051809103902060010160008373ffffffffffffffffffffffffffffffffffffffff1673ffffffffffffffffffffffffffffffffffffffff168152602001908152602001600020600080820160006101000a81549073ffffffffffffffffffffffffffffffffffffffff02191690556001820160006101000a81549073ffffffffffffffffffffffffffffffffffffffff021916905550506000836040518082805190602001908083835b60208310610eab5780518252602082019150602081019050602083039250610e88565b6001836020036101000a03801982511681845116808217855250505050505090500191505090815260200160405180910390206002016000815480929190600190039190505550505050565b6000606084848080601f016020809104026020016040519081016040528093929190818152602001838380828437600081840152601f19601f82011690508083019250505050505050600073ffffffffffffffffffffffffffffffffffffffff166000826040518082805190602001908083835b60208310610f8e5780518252602082019150602081019050602083039250610f6b565b6001836020036101000a038019825116818451168082178552505050505050905001915050908152602001604051809103902060000160009054906101000a900473ffffffffffffffffffffffffffffffffffffffff1673ffffffffffffffffffffffffffffffffffffffff16141561106f576040517f08c379a000000000000000000000000000000000000000000000000000000000815260040180806020018281038252600f8152602001807f46696c65206e6f7420657869737473000000000000000000000000000000000081525060200191505060405180910390fd5b600073ffffffffffffffffffffffffffffffffffffffff1660008787604051808383808284378083019250505092505050908152602001604051809103902060010160008673ffffffffffffffffffffffffffffffffffffffff1673ffffffffffffffffffffffffffffffffffffffff16815260200190815260200160002060000160009054906101000a900473ffffffffffffffffffffffffffffffffffffffff1673ffffffffffffffffffffffffffffffffffffffff16141561119c576040517f08c379a00000000000000000000000000000000000000000000000000000000081526004018080602001828103825260118152602001807f5065726d697373696f6e2064656e69656400000000000000000000000000000081525060200191505060405180910390fd5b6000808787604051808383808284378083019250505092505050908152602001604051809103902060010160008673ffffffffffffffffffffffffffffffffffffffff1673ffffffffffffffffffffffffffffffffffffffff16815260200190815260200160002060010160009054906101000a900473ffffffffffffffffffffffffffffffffffffffff1690508073ffffffffffffffffffffffffffffffffffffffff16632f13b60c6040518163ffffffff1660e01b815260040160206040518083038186803b15801561127057600080fd5b505afa158015611284573d6000803e3d6000fd5b505050506040513d602081101561129a57600080fd5b8101908080519060200190929190505050156112cc576000604051806020016040528060008152509350935050611397565b6001600288886040518083838082843780830192505050925050509081526020016040518091039020808054600181600116156101000203166002900480601f01602080910402602001604051908101604052809291908181526020018280546001816001161561010002031660029004801561138a5780601f1061135f5761010080835404028352916020019161138a565b820191906000526020600020905b81548152906001019060200180831161136d57829003601f168201915b5050505050905093509350505b50935093915050565b82600073ffffffffffffffffffffffffffffffffffffffff166000826040518082805190602001908083835b602083106113ef57805182526020820191506020810190506020830392506113cc565b6001836020036101000a038019825116818451168082178552505050505050905001915050908152602001604051809103902060000160009054906101000a900473ffffffffffffffffffffffffffffffffffffffff1673ffffffffffffffffffffffffffffffffffffffff1614156114d0576040517f08c379a000000000000000000000000000000000000000000000000000000000815260040180806020018281038252600f8152602001807f46696c65206e6f7420657869737473000000000000000000000000000000000081525060200191505060405180910390fd5b60405180604001604052808473ffffffffffffffffffffffffffffffffffffffff1681526020018373ffffffffffffffffffffffffffffffffffffffff168152506000856040518082805190602001908083835b602083106115475780518252602082019150602081019050602083039250611524565b6001836020036101000a038019825116818451168082178552505050505050905001915050908152602001604051809103902060010160008573ffffffffffffffffffffffffffffffffffffffff1673ffffffffffffffffffffffffffffffffffffffff16815260200190815260200160002060008201518160000160006101000a81548173ffffffffffffffffffffffffffffffffffffffff021916908373ffffffffffffffffffffffffffffffffffffffff16021790555060208201518160010160006101000a81548173ffffffffffffffffffffffffffffffffffffffff021916908373ffffffffffffffffffffffffffffffffffffffff1602179055509050506000846040518082805190602001908083835b60208310611681578051825260208201915060208101905060208303925061165e565b6001836020036101000a03801982511681845116808217855250505050505090500191505090815260200160405180910390206002016000815480929190600101919050555050505050565b60015481565b6000818051602081018201805184825260208301602085012081835280955050505050506000915090508060000160009054906101000a900473ffffffffffffffffffffffffffffffffffffffff1690806002015490806003018054600181600116156101000203166002900480601f0160208091040260200160405190810160405280929190818152602001828054600181600116156101000203166002900480156117c15780601f10611796576101008083540402835291602001916117c1565b820191906000526020600020905b8154815290600101906020018083116117a457829003601f168201915b505050505090806004018054600181600116156101000203166002900480601f01602080910402602001604051908101604052809291908181526020018280546001816001161561010002031660029004801561185f5780601f106118345761010080835404028352916020019161185f565b820191906000526020600020905b81548152906001019060200180831161184257829003601f168201915b505050505090806005018054600181600116156101000203166002900480601f0160208091040260200160405190810160405280929190818152602001828054600181600116156101000203166002900480156118fd5780601f106118d2576101008083540402835291602001916118fd565b820191906000526020600020905b8154815290600101906020018083116118e057829003601f168201915b5050505050905085565b80600073ffffffffffffffffffffffffffffffffffffffff166000826040518082805190602001908083835b602083106119565780518252602082019150602081019050602083039250611933565b6001836020036101000a038019825116818451168082178552505050505050905001915050908152602001604051809103902060000160009054906101000a900473ffffffffffffffffffffffffffffffffffffffff1673ffffffffffffffffffffffffffffffffffffffff161415611a37576040517f08c379a000000000000000000000000000000000000000000000000000000000815260040180806020018281038252600f8152602001807f46696c65206e6f7420657869737473000000000000000000000000000000000081525060200191505060405180910390fd5b6000826040518082805190602001908083835b60208310611a6d5780518252602082019150602081019050602083039250611a4a565b6001836020036101000a0380198251168184511680821785525050505050509050019150509081526020016040518091039020600080820160006101000a81549073ffffffffffffffffffffffffffffffffffffffff02191690556002820160009055600382016000611ae09190611c19565b600482016000611af09190611c19565b600582016000611b009190611c19565b5050600160008154809291906001900391905055505050565b828054600181600116156101000203166002900490600052602060002090601f016020900481019282601f10611b5a57805160ff1916838001178555611b88565b82800160010185558215611b88579182015b82811115611b87578251825591602001919060010190611b6c565b5b509050611b959190611c61565b5090565b828054600181600116156101000203166002900490600052602060002090601f016020900481019282601f10611bda57805160ff1916838001178555611c08565b82800160010185558215611c08579182015b82811115611c07578251825591602001919060010190611bec565b5b509050611c159190611c61565b5090565b50805460018160011615610100020316600290046000825580601f10611c3f5750611c5e565b601f016020900490600052602060002090810190611c5d9190611c61565b5b50565b611c8391905b80821115611c7f576000816000905550600101611c67565b5090565b9056fea265627a7a72315820efb1f1b3ab45140be9467c9b0c9fe393464988d372f426f8bba66362a7bf2b6764736f6c634300050c0032",
  "source": "pragma solidity ^0.5.0;\nimport \"./PaymentChannel.sol\";\n\ncontract Files {\n    struct Reader {\n        address addr;\n        address paymentContract;\n    }\n\n    struct File {\n        address owner;\n        mapping(address => Reader) readers;\n        uint readersCount;\n        string name;\n        string description;\n        string ipfsHash;\n    }\n\n    mapping(string => File) public files;\n    uint public filesCount;\n\n    mapping(string => string) internal accessKeys;\n\n    modifier onlyFileExists(string memory _hash) {\n        require(files[_hash].owner != address(0), \"File not exists\");\n        _;\n    }\n\n    function checkPermissionAndGetKey (string calldata _hash, address _addr)\n        external\n        view\n        onlyFileExists(_hash)\n        returns (bool _hasPermission, string memory _accessKey)\n    {\n        require(files[_hash].readers[_addr].addr != address(0), \"Permission denied\");\n        PaymentChannel channel = PaymentChannel(files[_hash].readers[_addr].paymentContract);\n        if (channel.isExpired()) {\n            return (false, \"\");\n        }\n        return (true, accessKeys[_hash]);\n    }\n\n    function addFile(\n        address _owner,\n        string memory _hash,\n        string memory _name,\n        string memory _description,\n        string memory _accessKey\n    )\n        public\n    {\n        require(files[_hash].owner == address(0), \"File exists\");\n        files[_hash] = File({\n            owner: _owner,\n            name: _name,\n            readersCount: 0,\n            description: _description,\n            ipfsHash: _hash\n        });\n        accessKeys[_hash] = _accessKey;\n        filesCount++;\n    }\n\n    function removeFile(string memory _hash)\n        public\n        onlyFileExists(_hash)\n    {\n        delete files[_hash];\n        filesCount--;\n    }\n\n    function addReader(\n        string memory _hash,\n        address reader,\n        address _contract\n    )\n        public\n        onlyFileExists(_hash)\n    {\n        files[_hash].readers[reader] = Reader({\n            addr: reader,\n            paymentContract: _contract\n        });\n        files[_hash].readersCount++;\n    }\n\n    function removeReader(\n        string memory _hash,\n        address reader\n    )\n        public\n        onlyFileExists(_hash)\n    {\n        delete files[_hash].readers[reader];\n        files[_hash].readersCount--;\n    }\n}\n",
  "sourcePath": "/home/luong/workspace/ppu/contracts/Files.sol",
  "compiler": {
    "name": "solc",
    "version": "0.5.12+commit.7709ece9.Emscripten.clang"
  },
  "schemaVersion": "3.0.19",
  "updatedAt": "2019-12-19T04:49:18.150Z",
  "devdoc": {
    "methods": {}
  },
  "userdoc": {
    "methods": {}
  }
}