{
  "contractName": "PaymentChannel",
  "abi": [
    {
      "inputs": [
        {
          "internalType": "address payable",
          "name": "_sender",
          "type": "address"
        },
        {
          "internalType": "string",
          "name": "_fileHash",
          "type": "string"
        },
        {
          "internalType": "address payable",
          "name": "_recipient",
          "type": "address"
        },
        {
          "internalType": "uint256",
          "name": "_price",
          "type": "uint256"
        },
        {
          "internalType": "uint256",
          "name": "_duration",
          "type": "uint256"
        }
      ],
      "payable": true,
      "stateMutability": "payable",
      "type": "constructor"
    },
    {
      "constant": true,
      "inputs": [],
      "name": "amount",
      "outputs": [
        {
          "internalType": "uint256",
          "name": "",
          "type": "uint256"
        }
      ],
      "payable": false,
      "stateMutability": "view",
      "type": "function"
    },
    {
      "constant": true,
      "inputs": [],
      "name": "duration",
      "outputs": [
        {
          "internalType": "uint256",
          "name": "",
          "type": "uint256"
        }
      ],
      "payable": false,
      "stateMutability": "view",
      "type": "function"
    },
    {
      "constant": true,
      "inputs": [],
      "name": "expiration",
      "outputs": [
        {
          "internalType": "uint256",
          "name": "",
          "type": "uint256"
        }
      ],
      "payable": false,
      "stateMutability": "view",
      "type": "function"
    },
    {
      "constant": true,
      "inputs": [],
      "name": "filesContractAddr",
      "outputs": [
        {
          "internalType": "address",
          "name": "",
          "type": "address"
        }
      ],
      "payable": false,
      "stateMutability": "view",
      "type": "function"
    },
    {
      "constant": true,
      "inputs": [],
      "name": "price",
      "outputs": [
        {
          "internalType": "uint256",
          "name": "",
          "type": "uint256"
        }
      ],
      "payable": false,
      "stateMutability": "view",
      "type": "function"
    },
    {
      "constant": true,
      "inputs": [],
      "name": "recipient",
      "outputs": [
        {
          "internalType": "address payable",
          "name": "",
          "type": "address"
        }
      ],
      "payable": false,
      "stateMutability": "view",
      "type": "function"
    },
    {
      "constant": true,
      "inputs": [],
      "name": "sender",
      "outputs": [
        {
          "internalType": "address payable",
          "name": "",
          "type": "address"
        }
      ],
      "payable": false,
      "stateMutability": "view",
      "type": "function"
    },
    {
      "constant": true,
      "inputs": [],
      "name": "start",
      "outputs": [
        {
          "internalType": "uint256",
          "name": "",
          "type": "uint256"
        }
      ],
      "payable": false,
      "stateMutability": "view",
      "type": "function"
    },
    {
      "constant": true,
      "inputs": [],
      "name": "getInfo",
      "outputs": [
        {
          "internalType": "uint256",
          "name": "_price",
          "type": "uint256"
        },
        {
          "internalType": "uint256",
          "name": "_start",
          "type": "uint256"
        },
        {
          "internalType": "uint256",
          "name": "_duration",
          "type": "uint256"
        },
        {
          "internalType": "uint256",
          "name": "_expiration",
          "type": "uint256"
        },
        {
          "internalType": "uint256",
          "name": "_amount",
          "type": "uint256"
        }
      ],
      "payable": false,
      "stateMutability": "view",
      "type": "function"
    },
    {
      "constant": false,
      "inputs": [],
      "name": "close",
      "outputs": [],
      "payable": false,
      "stateMutability": "nonpayable",
      "type": "function"
    },
    {
      "constant": false,
      "inputs": [],
      "name": "claimTimeout",
      "outputs": [],
      "payable": false,
      "stateMutability": "nonpayable",
      "type": "function"
    },
    {
      "constant": true,
      "inputs": [],
      "name": "isExpired",
      "outputs": [
        {
          "internalType": "bool",
          "name": "",
          "type": "bool"
        }
      ],
      "payable": false,
      "stateMutability": "view",
      "type": "function"
    }
  ],
  "bytecode": "0x6080604052604051610ca9380380610ca9833981810160405260a081101561002657600080fd5b81019080805190602001909291908051604051939291908464010000000082111561005057600080fd5b8382019150602082018581111561006657600080fd5b825186600182028301116401000000008211171561008357600080fd5b8083526020830192505050908051906020019080838360005b838110156100b757808201518184015260208101905061009c565b50505050905090810190601f1680156100e45780820380516001836020036101000a031916815260200191505b5060405260200180519060200190929190805190602001909291908051906020019092919050505061011d81833461029c60201b60201c565b61018f576040517f08c379a000000000000000000000000000000000000000000000000000000000815260040180806020018281038252600e8152602001807f496e76616c696420616d6f756e7400000000000000000000000000000000000081525060200191505060405180910390fd5b336000806101000a81548173ffffffffffffffffffffffffffffffffffffffff021916908373ffffffffffffffffffffffffffffffffffffffff16021790555084600260006101000a81548173ffffffffffffffffffffffffffffffffffffffff021916908373ffffffffffffffffffffffffffffffffffffffff16021790555083600190805190602001906102269291906102ad565b5082600360006101000a81548173ffffffffffffffffffffffffffffffffffffffff021916908373ffffffffffffffffffffffffffffffffffffffff1602179055508160048190555042600581905550806006819055506201518081024201600781905550346008819055505050505050610352565b600081838502111590509392505050565b828054600181600116156101000203166002900490600052602060002090601f016020900481019282601f106102ee57805160ff191683800117855561031c565b8280016001018555821561031c579182015b8281111561031b578251825591602001919060010190610300565b5b509050610329919061032d565b5090565b61034f91905b8082111561034b576000816000905550600101610333565b5090565b90565b610948806103616000396000f3fe608060405234801561001057600080fd5b50600436106100b45760003560e01c806366d003ac1161007157806366d003ac1461016557806367e404ce146101af578063a035b1fe146101f9578063aa8c217c14610217578063be9a655514610235578063f9e79f4f14610253576100b4565b80630e1da6c3146100b95780630fb5a6b4146100c35780632f13b60c146100e157806343d726d6146101035780634665096d1461010d5780635a9b0b891461012b575b600080fd5b6100c161029d565b005b6100cb610529565b6040518082815260200191505060405180910390f35b6100e961052f565b604051808215151515815260200191505060405180910390f35b61010b61053c565b005b610115610820565b6040518082815260200191505060405180910390f35b610133610826565b604051808681526020018581526020018481526020018381526020018281526020019550505050505060405180910390f35b61016d61084e565b604051808273ffffffffffffffffffffffffffffffffffffffff1673ffffffffffffffffffffffffffffffffffffffff16815260200191505060405180910390f35b6101b7610874565b604051808273ffffffffffffffffffffffffffffffffffffffff1673ffffffffffffffffffffffffffffffffffffffff16815260200191505060405180910390f35b61020161089a565b6040518082815260200191505060405180910390f35b61021f6108a0565b6040518082815260200191505060405180910390f35b61023d6108a6565b6040518082815260200191505060405180910390f35b61025b6108ac565b604051808273ffffffffffffffffffffffffffffffffffffffff1673ffffffffffffffffffffffffffffffffffffffff16815260200191505060405180910390f35b600754421015610315576040517f08c379a000000000000000000000000000000000000000000000000000000000815260040180806020018281038252601e8152602001807f486176656e27742072656163686564207468652065787069726174696f6e000081525060200191505060405180910390fd5b600360009054906101000a900473ffffffffffffffffffffffffffffffffffffffff1673ffffffffffffffffffffffffffffffffffffffff166108fc600654600454029081150290604051600060405180830381858888f19350505050158015610383573d6000803e3d6000fd5b5060008060009054906101000a900473ffffffffffffffffffffffffffffffffffffffff1690508073ffffffffffffffffffffffffffffffffffffffff16633feb04b06001600260009054906101000a900473ffffffffffffffffffffffffffffffffffffffff166040518363ffffffff1660e01b815260040180806020018373ffffffffffffffffffffffffffffffffffffffff1673ffffffffffffffffffffffffffffffffffffffff1681526020018281038252848181546001816001161561010002031660029004815260200191508054600181600116156101000203166002900480156104b55780601f1061048a576101008083540402835291602001916104b5565b820191906000526020600020905b81548152906001019060200180831161049857829003601f168201915b50509350505050600060405180830381600087803b1580156104d657600080fd5b505af11580156104ea573d6000803e3d6000fd5b50505050600260009054906101000a900473ffffffffffffffffffffffffffffffffffffffff1673ffffffffffffffffffffffffffffffffffffffff16ff5b60065481565b6000426007541115905090565b600260009054906101000a900473ffffffffffffffffffffffffffffffffffffffff1673ffffffffffffffffffffffffffffffffffffffff163373ffffffffffffffffffffffffffffffffffffffff16146105ff576040517f08c379a000000000000000000000000000000000000000000000000000000000815260040180806020018281038252601a8152602001807f4f6e6c792073656e6465722063616e2063616c6c20746869732e00000000000081525060200191505060405180910390fd5b600061060c6005546108d1565b9050600360009054906101000a900473ffffffffffffffffffffffffffffffffffffffff1673ffffffffffffffffffffffffffffffffffffffff166108fc82600454029081150290604051600060405180830381858888f1935050505015801561067a573d6000803e3d6000fd5b5060008060009054906101000a900473ffffffffffffffffffffffffffffffffffffffff1690508073ffffffffffffffffffffffffffffffffffffffff16633feb04b06001600260009054906101000a900473ffffffffffffffffffffffffffffffffffffffff166040518363ffffffff1660e01b815260040180806020018373ffffffffffffffffffffffffffffffffffffffff1673ffffffffffffffffffffffffffffffffffffffff1681526020018281038252848181546001816001161561010002031660029004815260200191508054600181600116156101000203166002900480156107ac5780601f10610781576101008083540402835291602001916107ac565b820191906000526020600020905b81548152906001019060200180831161078f57829003601f168201915b50509350505050600060405180830381600087803b1580156107cd57600080fd5b505af11580156107e1573d6000803e3d6000fd5b50505050600260009054906101000a900473ffffffffffffffffffffffffffffffffffffffff1673ffffffffffffffffffffffffffffffffffffffff16ff5b60075481565b6000806000806000600454600554600654600754600854945094509450945094509091929394565b600360009054906101000a900473ffffffffffffffffffffffffffffffffffffffff1681565b600260009054906101000a900473ffffffffffffffffffffffffffffffffffffffff1681565b60045481565b60085481565b60055481565b6000809054906101000a900473ffffffffffffffffffffffffffffffffffffffff1681565b6000806018603c80854203816108e357fe5b04816108eb57fe5b04816108f357fe5b049050600181101561090957600191505061090e565b809150505b91905056fea265627a7a72315820cb36163c04a3ab5c55d81ede45401dba9d6d00ecec9bdbdf555016dbc4e61b0e64736f6c634300050c0032",
  "source": "pragma solidity >=0.4.22 <0.7.0;\nimport \"./Files.sol\";\n\ncontract PaymentChannel {\n    address public filesContractAddr;\n    string fileHash;\n    address payable public sender;\n    address payable public recipient;\n    uint256 public price;\n    uint256 public start;\n    uint256 public duration;\n    uint256 public expiration;\n    uint256 public amount;\n\n    constructor (\n        address payable _sender,\n        string memory _fileHash,\n        address payable _recipient,\n        uint256 _price,\n        uint256 _duration\n    )\n        public\n        payable\n    {\n        require(validAmount(_duration, _price, msg.value), \"Invalid amount\");\n        filesContractAddr = msg.sender;\n        sender = _sender;\n        fileHash = _fileHash;\n        recipient = _recipient;\n        price = _price;\n        start = now;\n        duration = _duration;\n        expiration = now + _duration * 1 days;\n        amount = msg.value;\n    }\n\n    modifier onlySender() {\n        require(\n            msg.sender == sender,\n            \"Only sender can call this.\"\n        );\n        _;\n    }\n\n    modifier onlyRecipient() {\n        require(\n            msg.sender == recipient,\n            \"Only recipient can call this.\"\n        );\n        _;\n    }\n\n    function getInfo()\n        public\n        view\n        returns (uint256 _price, uint256 _start, uint256 _duration, uint256 _expiration, uint256 _amount)\n    {\n        return (price, start, duration, expiration, amount);\n    }\n\n    function close()\n        public\n        onlySender\n    {\n        uint d = calculateDays(start);\n        recipient.transfer(price * d);\n        Files filesContract = Files(filesContractAddr);\n        filesContract.removeReader(fileHash, sender);\n        selfdestruct(sender);\n    }\n\n    function claimTimeout() public {\n        require(now >= expiration, \"Haven't reached the expiration\");\n        recipient.transfer(price * duration);\n        Files filesContract = Files(filesContractAddr);\n        filesContract.removeReader(fileHash, sender);\n        selfdestruct(sender);\n    }\n\n    function validAmount(uint256 _duration, uint256 _price, uint256 _amount)\n        internal\n        pure\n        returns (bool)\n    {\n        return _duration * _price <= _amount;\n    }\n\n    function isExpired() external view returns (bool) {\n        return expiration <= now;\n    }\n\n    function calculateDays(uint256 _start) internal view returns (uint) {\n        uint d = (now - _start) / 60 / 60 / 24;\n        if (d < 1) {\n            return 1;\n        }\n        return d;\n    }\n}\n",
  "sourcePath": "D:\\workspace\\ppu\\contracts\\PaymentChannel.sol",
  "compiler": {
    "name": "solc",
    "version": "0.5.12+commit.7709ece9.Emscripten.clang"
  },
  "schemaVersion": "3.0.19",
  "updatedAt": "2019-12-19T19:44:18.226Z",
  "devdoc": {
    "methods": {}
  },
  "userdoc": {
    "methods": {}
  }
}