{
  "contractName": "PaymentChannel",
  "abi": [
    {
      "inputs": [
        {
          "internalType": "address",
          "name": "_filesContract",
          "type": "address"
        },
        {
          "internalType": "string",
          "name": "_fileHash",
          "type": "string"
        },
        {
          "internalType": "address payable",
          "name": "_recipient",
          "type": "address"
        },
        {
          "internalType": "uint256",
          "name": "_price",
          "type": "uint256"
        },
        {
          "internalType": "uint256",
          "name": "_duration",
          "type": "uint256"
        }
      ],
      "payable": true,
      "stateMutability": "payable",
      "type": "constructor"
    },
    {
      "constant": true,
      "inputs": [],
      "name": "duration",
      "outputs": [
        {
          "internalType": "uint256",
          "name": "",
          "type": "uint256"
        }
      ],
      "payable": false,
      "stateMutability": "view",
      "type": "function"
    },
    {
      "constant": true,
      "inputs": [],
      "name": "expiration",
      "outputs": [
        {
          "internalType": "uint256",
          "name": "",
          "type": "uint256"
        }
      ],
      "payable": false,
      "stateMutability": "view",
      "type": "function"
    },
    {
      "constant": true,
      "inputs": [],
      "name": "filesContractAddr",
      "outputs": [
        {
          "internalType": "address",
          "name": "",
          "type": "address"
        }
      ],
      "payable": false,
      "stateMutability": "view",
      "type": "function"
    },
    {
      "constant": true,
      "inputs": [],
      "name": "price",
      "outputs": [
        {
          "internalType": "uint256",
          "name": "",
          "type": "uint256"
        }
      ],
      "payable": false,
      "stateMutability": "view",
      "type": "function"
    },
    {
      "constant": true,
      "inputs": [],
      "name": "recipient",
      "outputs": [
        {
          "internalType": "address payable",
          "name": "",
          "type": "address"
        }
      ],
      "payable": false,
      "stateMutability": "view",
      "type": "function"
    },
    {
      "constant": true,
      "inputs": [],
      "name": "sender",
      "outputs": [
        {
          "internalType": "address payable",
          "name": "",
          "type": "address"
        }
      ],
      "payable": false,
      "stateMutability": "view",
      "type": "function"
    },
    {
      "constant": true,
      "inputs": [],
      "name": "start",
      "outputs": [
        {
          "internalType": "uint256",
          "name": "",
          "type": "uint256"
        }
      ],
      "payable": false,
      "stateMutability": "view",
      "type": "function"
    },
    {
      "constant": false,
      "inputs": [],
      "name": "close",
      "outputs": [],
      "payable": false,
      "stateMutability": "nonpayable",
      "type": "function"
    },
    {
      "constant": false,
      "inputs": [],
      "name": "claimTimeout",
      "outputs": [],
      "payable": false,
      "stateMutability": "nonpayable",
      "type": "function"
    },
    {
      "constant": true,
      "inputs": [],
      "name": "isExpired",
      "outputs": [
        {
          "internalType": "bool",
          "name": "",
          "type": "bool"
        }
      ],
      "payable": false,
      "stateMutability": "view",
      "type": "function"
    }
  ],
  "bytecode": "0x6080604052604051610bf4380380610bf4833981810160405260a081101561002657600080fd5b81019080805190602001909291908051604051939291908464010000000082111561005057600080fd5b8382019150602082018581111561006657600080fd5b825186600182028301116401000000008211171561008357600080fd5b8083526020830192505050908051906020019080838360005b838110156100b757808201518184015260208101905061009c565b50505050905090810190601f1680156100e45780820380516001836020036101000a031916815260200191505b5060405260200180519060200190929190805190602001909291908051906020019092919050505061011d81833461029c60201b60201c565b61018f576040517f08c379a000000000000000000000000000000000000000000000000000000000815260040180806020018281038252600e8152602001807f496e76616c696420616d6f756e7400000000000000000000000000000000000081525060200191505060405180910390fd5b846000806101000a81548173ffffffffffffffffffffffffffffffffffffffff021916908373ffffffffffffffffffffffffffffffffffffffff16021790555083600190805190602001906101e59291906102ad565b5033600260006101000a81548173ffffffffffffffffffffffffffffffffffffffff021916908373ffffffffffffffffffffffffffffffffffffffff16021790555082600360006101000a81548173ffffffffffffffffffffffffffffffffffffffff021916908373ffffffffffffffffffffffffffffffffffffffff1602179055508160048190555042600581905550806006819055506201518081024201600781905550346008819055505050505050610352565b600081838502111590509392505050565b828054600181600116156101000203166002900490600052602060002090601f016020900481019282601f106102ee57805160ff191683800117855561031c565b8280016001018555821561031c579182015b8281111561031b578251825591602001919060010190610300565b5b509050610329919061032d565b5090565b61034f91905b8082111561034b576000816000905550600101610333565b5090565b90565b610893806103616000396000f3fe608060405234801561001057600080fd5b506004361061009e5760003560e01c806366d003ac1161006657806366d003ac1461011557806367e404ce1461015f578063a035b1fe146101a9578063be9a6555146101c7578063f9e79f4f146101e55761009e565b80630e1da6c3146100a35780630fb5a6b4146100ad5780632f13b60c146100cb57806343d726d6146100ed5780634665096d146100f7575b600080fd5b6100ab61022f565b005b6100b56104bb565b6040518082815260200191505060405180910390f35b6100d36104c1565b604051808215151515815260200191505060405180910390f35b6100f56104ce565b005b6100ff6107b2565b6040518082815260200191505060405180910390f35b61011d6107b8565b604051808273ffffffffffffffffffffffffffffffffffffffff1673ffffffffffffffffffffffffffffffffffffffff16815260200191505060405180910390f35b6101676107de565b604051808273ffffffffffffffffffffffffffffffffffffffff1673ffffffffffffffffffffffffffffffffffffffff16815260200191505060405180910390f35b6101b1610804565b6040518082815260200191505060405180910390f35b6101cf61080a565b6040518082815260200191505060405180910390f35b6101ed610810565b604051808273ffffffffffffffffffffffffffffffffffffffff1673ffffffffffffffffffffffffffffffffffffffff16815260200191505060405180910390f35b6007544210156102a7576040517f08c379a000000000000000000000000000000000000000000000000000000000815260040180806020018281038252601e8152602001807f486176656e27742072656163686564207468652065787069726174696f6e000081525060200191505060405180910390fd5b600360009054906101000a900473ffffffffffffffffffffffffffffffffffffffff1673ffffffffffffffffffffffffffffffffffffffff166108fc600654600454029081150290604051600060405180830381858888f19350505050158015610315573d6000803e3d6000fd5b5060008060009054906101000a900473ffffffffffffffffffffffffffffffffffffffff1690508073ffffffffffffffffffffffffffffffffffffffff16633feb04b06001600260009054906101000a900473ffffffffffffffffffffffffffffffffffffffff166040518363ffffffff1660e01b815260040180806020018373ffffffffffffffffffffffffffffffffffffffff1673ffffffffffffffffffffffffffffffffffffffff1681526020018281038252848181546001816001161561010002031660029004815260200191508054600181600116156101000203166002900480156104475780601f1061041c57610100808354040283529160200191610447565b820191906000526020600020905b81548152906001019060200180831161042a57829003601f168201915b50509350505050600060405180830381600087803b15801561046857600080fd5b505af115801561047c573d6000803e3d6000fd5b50505050600260009054906101000a900473ffffffffffffffffffffffffffffffffffffffff1673ffffffffffffffffffffffffffffffffffffffff16ff5b60065481565b6000426007541115905090565b600360009054906101000a900473ffffffffffffffffffffffffffffffffffffffff1673ffffffffffffffffffffffffffffffffffffffff163373ffffffffffffffffffffffffffffffffffffffff1614610591576040517f08c379a000000000000000000000000000000000000000000000000000000000815260040180806020018281038252601d8152602001807f4f6e6c7920726563697069656e742063616e2063616c6c20746869732e00000081525060200191505060405180910390fd5b600061059e600554610835565b9050600360009054906101000a900473ffffffffffffffffffffffffffffffffffffffff1673ffffffffffffffffffffffffffffffffffffffff166108fc82600454029081150290604051600060405180830381858888f1935050505015801561060c573d6000803e3d6000fd5b5060008060009054906101000a900473ffffffffffffffffffffffffffffffffffffffff1690508073ffffffffffffffffffffffffffffffffffffffff16633feb04b06001600260009054906101000a900473ffffffffffffffffffffffffffffffffffffffff166040518363ffffffff1660e01b815260040180806020018373ffffffffffffffffffffffffffffffffffffffff1673ffffffffffffffffffffffffffffffffffffffff16815260200182810382528481815460018160011615610100020316600290048152602001915080546001816001161561010002031660029004801561073e5780601f106107135761010080835404028352916020019161073e565b820191906000526020600020905b81548152906001019060200180831161072157829003601f168201915b50509350505050600060405180830381600087803b15801561075f57600080fd5b505af1158015610773573d6000803e3d6000fd5b50505050600260009054906101000a900473ffffffffffffffffffffffffffffffffffffffff1673ffffffffffffffffffffffffffffffffffffffff16ff5b60075481565b600360009054906101000a900473ffffffffffffffffffffffffffffffffffffffff1681565b600260009054906101000a900473ffffffffffffffffffffffffffffffffffffffff1681565b60045481565b60055481565b6000809054906101000a900473ffffffffffffffffffffffffffffffffffffffff1681565b60006018603c808442038161084657fe5b048161084e57fe5b048161085657fe5b04905091905056fea265627a7a723158201eaa3e79ddb025dc817c7f01ee234cc419548abcc9f80ac201d21a11adf6625d64736f6c634300050c0032",
  "source": "pragma solidity ^0.5.0;\nimport \"./Files.sol\";\n\ncontract PaymentChannel {\n    address public filesContractAddr;\n    string fileHash;\n    address payable public sender;\n    address payable public recipient;\n    uint256 public price;\n    uint256 public start;\n    uint256 public duration;\n    uint256 public expiration;\n    uint256 amount;\n\n    constructor (\n        address _filesContract,\n        string memory _fileHash,\n        address payable _recipient,\n        uint256 _price,\n        uint256 _duration\n    )\n        public\n        payable\n    {\n        require(validAmount(_duration, _price, msg.value), \"Invalid amount\");\n        filesContractAddr = _filesContract;\n        fileHash = _fileHash;\n        sender = msg.sender;\n        recipient = _recipient;\n        price = _price;\n        start = now;\n        duration = _duration;\n        expiration = now + _duration * 1 days;\n        amount = msg.value;\n    }\n\n    modifier onlySender() {\n        require(\n            msg.sender == sender,\n            \"Only sender can call this.\"\n        );\n        _;\n    }\n\n    modifier onlyRecipient() {\n        require(\n            msg.sender == recipient,\n            \"Only recipient can call this.\"\n        );\n        _;\n    }\n\n    function close()\n        public\n        onlyRecipient\n    {\n        uint d = calculateDays(start);\n        recipient.transfer(price * d);\n        Files filesContract = Files(filesContractAddr);\n        filesContract.removeReader(fileHash, sender);\n        selfdestruct(sender);\n    }\n\n    function claimTimeout() public {\n        require(now >= expiration, \"Haven't reached the expiration\");\n        recipient.transfer(price * duration);\n        Files filesContract = Files(filesContractAddr);\n        filesContract.removeReader(fileHash, sender);\n        selfdestruct(sender);\n    }\n\n    function validAmount(uint256 _duration, uint256 _price, uint256 _amount)\n        internal\n        pure\n        returns (bool)\n    {\n        return _duration * _price <= _amount;\n    }\n\n    function isExpired() external view returns (bool) {\n        return expiration <= now;\n    }\n\n    function calculateDays(uint256 _start) internal view returns (uint) {\n        return (now - _start) / 60 / 60 / 24;\n    }\n}\n",
  "sourcePath": "/home/luong/workspace/ppu/contracts/PaymentChannel.sol",
  "compiler": {
    "name": "solc",
    "version": "0.5.12+commit.7709ece9.Emscripten.clang"
  },
  "schemaVersion": "3.0.19",
  "updatedAt": "2019-12-19T04:49:18.194Z",
  "devdoc": {
    "methods": {}
  },
  "userdoc": {
    "methods": {}
  }
}